{
  "contractName": "AdEthFactory",
  "abi": [
    {
      "inputs": [
        {
          "internalType": "address",
          "name": "_erc20Address",
          "type": "address"
        },
        {
          "internalType": "uint256",
          "name": "_fee",
          "type": "uint256"
        }
      ],
      "stateMutability": "nonpayable",
      "type": "constructor"
    },
    {
      "anonymous": false,
      "inputs": [
        {
          "indexed": true,
          "internalType": "address",
          "name": "customer",
          "type": "address"
        },
        {
          "indexed": true,
          "internalType": "address",
          "name": "AdEthNFT",
          "type": "address"
        },
        {
          "indexed": true,
          "internalType": "uint256",
          "name": "budget",
          "type": "uint256"
        }
      ],
      "name": "FactoryProduction",
      "type": "event"
    },
    {
      "anonymous": false,
      "inputs": [
        {
          "indexed": true,
          "internalType": "uint256",
          "name": "_newFee",
          "type": "uint256"
        }
      ],
      "name": "NewFeeSet",
      "type": "event"
    },
    {
      "anonymous": false,
      "inputs": [
        {
          "indexed": true,
          "internalType": "address",
          "name": "previousOwner",
          "type": "address"
        },
        {
          "indexed": true,
          "internalType": "address",
          "name": "newOwner",
          "type": "address"
        }
      ],
      "name": "OwnershipTransferred",
      "type": "event"
    },
    {
      "anonymous": false,
      "inputs": [
        {
          "indexed": false,
          "internalType": "address",
          "name": "account",
          "type": "address"
        }
      ],
      "name": "Paused",
      "type": "event"
    },
    {
      "anonymous": false,
      "inputs": [
        {
          "indexed": true,
          "internalType": "address",
          "name": "sender",
          "type": "address"
        },
        {
          "indexed": true,
          "internalType": "uint256",
          "name": "amount",
          "type": "uint256"
        }
      ],
      "name": "ReceivedEther",
      "type": "event"
    },
    {
      "anonymous": false,
      "inputs": [
        {
          "indexed": false,
          "internalType": "address",
          "name": "account",
          "type": "address"
        }
      ],
      "name": "Unpaused",
      "type": "event"
    },
    {
      "stateMutability": "payable",
      "type": "fallback",
      "payable": true
    },
    {
      "inputs": [
        {
          "internalType": "uint256",
          "name": "",
          "type": "uint256"
        }
      ],
      "name": "AdEthNFTs",
      "outputs": [
        {
          "internalType": "address",
          "name": "",
          "type": "address"
        }
      ],
      "stateMutability": "view",
      "type": "function",
      "constant": true
    },
    {
      "inputs": [],
      "name": "erc20Address",
      "outputs": [
        {
          "internalType": "address",
          "name": "",
          "type": "address"
        }
      ],
      "stateMutability": "view",
      "type": "function",
      "constant": true
    },
    {
      "inputs": [],
      "name": "ethToPayTx",
      "outputs": [
        {
          "internalType": "uint256",
          "name": "",
          "type": "uint256"
        }
      ],
      "stateMutability": "view",
      "type": "function",
      "constant": true
    },
    {
      "inputs": [],
      "name": "fee",
      "outputs": [
        {
          "internalType": "uint256",
          "name": "",
          "type": "uint256"
        }
      ],
      "stateMutability": "view",
      "type": "function",
      "constant": true
    },
    {
      "inputs": [],
      "name": "idCounter",
      "outputs": [
        {
          "internalType": "uint256",
          "name": "",
          "type": "uint256"
        }
      ],
      "stateMutability": "view",
      "type": "function",
      "constant": true
    },
    {
      "inputs": [],
      "name": "owner",
      "outputs": [
        {
          "internalType": "address",
          "name": "",
          "type": "address"
        }
      ],
      "stateMutability": "view",
      "type": "function",
      "constant": true
    },
    {
      "inputs": [],
      "name": "paused",
      "outputs": [
        {
          "internalType": "bool",
          "name": "",
          "type": "bool"
        }
      ],
      "stateMutability": "view",
      "type": "function",
      "constant": true
    },
    {
      "inputs": [],
      "name": "renounceOwnership",
      "outputs": [],
      "stateMutability": "nonpayable",
      "type": "function"
    },
    {
      "inputs": [
        {
          "internalType": "address",
          "name": "newOwner",
          "type": "address"
        }
      ],
      "name": "transferOwnership",
      "outputs": [],
      "stateMutability": "nonpayable",
      "type": "function"
    },
    {
      "stateMutability": "payable",
      "type": "receive",
      "payable": true
    },
    {
      "inputs": [],
      "name": "lockContract",
      "outputs": [],
      "stateMutability": "nonpayable",
      "type": "function"
    },
    {
      "inputs": [],
      "name": "unlockContract",
      "outputs": [],
      "stateMutability": "nonpayable",
      "type": "function"
    },
    {
      "inputs": [
        {
          "internalType": "uint256",
          "name": "_newFee",
          "type": "uint256"
        }
      ],
      "name": "setFee",
      "outputs": [],
      "stateMutability": "nonpayable",
      "type": "function"
    },
    {
      "inputs": [
        {
          "internalType": "uint256",
          "name": "budget",
          "type": "uint256"
        },
        {
          "internalType": "address payable",
          "name": "_newAdCaller",
          "type": "address"
        },
        {
          "internalType": "string",
          "name": "_newUri",
          "type": "string"
        },
        {
          "internalType": "uint256",
          "name": "_newCpc",
          "type": "uint256"
        }
      ],
      "name": "createAdEthNFT",
      "outputs": [],
      "stateMutability": "nonpayable",
      "type": "function"
    }
  ],
  "bytecode": "0x60806040523480156200001157600080fd5b50604051620033b3380380620033b38339818101604052810190620000379190620001a2565b6000620000496200016c60201b60201c565b9050806000806101000a81548173ffffffffffffffffffffffffffffffffffffffff021916908373ffffffffffffffffffffffffffffffffffffffff1602179055508073ffffffffffffffffffffffffffffffffffffffff16600073ffffffffffffffffffffffffffffffffffffffff167f8be0079c531659141344cd1fd0a4f28419497f9722a3daafe3b4186f6b6457e060405160405180910390a350600180819055506000600260006101000a81548160ff02191690831515021790555081600260016101000a81548173ffffffffffffffffffffffffffffffffffffffff021916908373ffffffffffffffffffffffffffffffffffffffff1602179055506000600381905550806004819055506301312d00600581905550505062000255565b600033905090565b600081519050620001858162000221565b92915050565b6000815190506200019c816200023b565b92915050565b60008060408385031215620001b657600080fd5b6000620001c68582860162000174565b9250506020620001d9858286016200018b565b9150509250929050565b6000620001f082620001f7565b9050919050565b600073ffffffffffffffffffffffffffffffffffffffff82169050919050565b6000819050919050565b6200022c81620001e3565b81146200023857600080fd5b50565b620002468162000217565b81146200025257600080fd5b50565b61314e80620002656000396000f3fe608060405260043610620000d95760003560e01c8063753868e3116200008b578063ddca3f431162000061578063ddca3f4314620002f7578063eb08ab281462000327578063f2fde38b1462000357578063f85336f214620003855762000172565b8063753868e3146200027d57806377c42a7e14620002975780638da5cb5b14620002c75762000172565b806322f0f2f91462000177578063276184ae1462000191578063354b890514620001c15780635c975abb146200020557806369fe0e2d1462000235578063715018a614620002635762000172565b366200017257620000e9620003b3565b156200012c576040517f08c379a00000000000000000000000000000000000000000000000000000000081526004016200012390620015cf565b60405180910390fd5b343373ffffffffffffffffffffffffffffffffffffffff167fa419615bc8fda4c87663805ee2a3597a6d71c1d476911d9892f340d965bc7bf160405160405180910390a3005b600080fd5b3480156200018457600080fd5b506200018f620003ca565b005b3480156200019e57600080fd5b50620001a962000459565b604051620001b891906200141d565b60405180910390f35b348015620001ce57600080fd5b50620001ed6004803603810190620001e7919062001145565b6200047f565b604051620001fc91906200141d565b60405180910390f35b3480156200021257600080fd5b506200021d620003b3565b6040516200022c919062001508565b60405180910390f35b3480156200024257600080fd5b506200026160048036038101906200025b919062001145565b620004b2565b005b3480156200027057600080fd5b506200027b6200056c565b005b3480156200028a57600080fd5b5062000295620006ad565b005b348015620002a457600080fd5b50620002af6200073c565b604051620002be919062001635565b60405180910390f35b348015620002d457600080fd5b50620002df62000742565b604051620002ee91906200141d565b60405180910390f35b3480156200030457600080fd5b506200030f6200076b565b6040516200031e919062001635565b60405180910390f35b3480156200033457600080fd5b506200033f62000771565b6040516200034e919062001635565b60405180910390f35b3480156200036457600080fd5b506200038360048036038101906200037d9190620010ed565b62000777565b005b3480156200039257600080fd5b50620003b16004803603810190620003ab91906200119d565b6200092a565b005b6000600260009054906101000a900460ff16905090565b620003d462000e9b565b73ffffffffffffffffffffffffffffffffffffffff16620003f462000742565b73ffffffffffffffffffffffffffffffffffffffff16146200044d576040517f08c379a00000000000000000000000000000000000000000000000000000000081526004016200044490620015f1565b60405180910390fd5b6200045762000ea3565b565b600260019054906101000a900473ffffffffffffffffffffffffffffffffffffffff1681565b60066020528060005260406000206000915054906101000a900473ffffffffffffffffffffffffffffffffffffffff1681565b620004bc62000e9b565b73ffffffffffffffffffffffffffffffffffffffff16620004dc62000742565b73ffffffffffffffffffffffffffffffffffffffff161462000535576040517f08c379a00000000000000000000000000000000000000000000000000000000081526004016200052c90620015f1565b60405180910390fd5b80600481905550807f7214ada276dda68e2460c8f5b3a610e54171aeab13399f9fb3653226d30c327e60405160405180910390a250565b6200057662000e9b565b73ffffffffffffffffffffffffffffffffffffffff166200059662000742565b73ffffffffffffffffffffffffffffffffffffffff1614620005ef576040517f08c379a0000000000000000000000000000000000000000000000000000000008152600401620005e690620015f1565b60405180910390fd5b600073ffffffffffffffffffffffffffffffffffffffff1660008054906101000a900473ffffffffffffffffffffffffffffffffffffffff1673ffffffffffffffffffffffffffffffffffffffff167f8be0079c531659141344cd1fd0a4f28419497f9722a3daafe3b4186f6b6457e060405160405180910390a360008060006101000a81548173ffffffffffffffffffffffffffffffffffffffff021916908373ffffffffffffffffffffffffffffffffffffffff160217905550565b620006b762000e9b565b73ffffffffffffffffffffffffffffffffffffffff16620006d762000742565b73ffffffffffffffffffffffffffffffffffffffff161462000730576040517f08c379a00000000000000000000000000000000000000000000000000000000081526004016200072790620015f1565b60405180910390fd5b6200073a62000f4e565b565b60055481565b60008060009054906101000a900473ffffffffffffffffffffffffffffffffffffffff16905090565b60045481565b60035481565b6200078162000e9b565b73ffffffffffffffffffffffffffffffffffffffff16620007a162000742565b73ffffffffffffffffffffffffffffffffffffffff1614620007fa576040517f08c379a0000000000000000000000000000000000000000000000000000000008152600401620007f190620015f1565b60405180910390fd5b600073ffffffffffffffffffffffffffffffffffffffff168173ffffffffffffffffffffffffffffffffffffffff1614156200086d576040517f08c379a0000000000000000000000000000000000000000000000000000000008152600401620008649062001569565b60405180910390fd5b8073ffffffffffffffffffffffffffffffffffffffff1660008054906101000a900473ffffffffffffffffffffffffffffffffffffffff1673ffffffffffffffffffffffffffffffffffffffff167f8be0079c531659141344cd1fd0a4f28419497f9722a3daafe3b4186f6b6457e060405160405180910390a3806000806101000a81548173ffffffffffffffffffffffffffffffffffffffff021916908373ffffffffffffffffffffffffffffffffffffffff16021790555050565b6000600260019054906101000a900473ffffffffffffffffffffffffffffffffffffffff169050848173ffffffffffffffffffffffffffffffffffffffff166370a08231336040518263ffffffff1660e01b81526004016200098d91906200141d565b60206040518083038186803b158015620009a657600080fd5b505afa158015620009bb573d6000803e3d6000fd5b505050506040513d601f19601f82011682018060405250810190620009e1919062001171565b101562000a25576040517f08c379a000000000000000000000000000000000000000000000000000000000815260040162000a1c9062001547565b60405180910390fd5b848173ffffffffffffffffffffffffffffffffffffffff1663dd62ed3e33306040518363ffffffff1660e01b815260040162000a639291906200143a565b60206040518083038186803b15801562000a7c57600080fd5b505afa15801562000a91573d6000803e3d6000fd5b505050506040513d601f19601f8201168201806040525081019062000ab7919062001171565b101562000afb576040517f08c379a000000000000000000000000000000000000000000000000000000000815260040162000af290620015ad565b60405180910390fd5b600115158173ffffffffffffffffffffffffffffffffffffffff166323b872dd3330896040518463ffffffff1660e01b815260040162000b3e93929190620014cb565b602060405180830381600087803b15801562000b5957600080fd5b505af115801562000b6e573d6000803e3d6000fd5b505050506040513d601f19601f8201168201806040525081019062000b94919062001119565b15151462000bd9576040517f08c379a000000000000000000000000000000000000000000000000000000000815260040162000bd09062001613565b60405180910390fd5b600033858585600260019054906101000a900473ffffffffffffffffffffffffffffffffffffffff1660405162000c109062000ffa565b62000c2095949392919062001467565b604051809103906000f08015801562000c3d573d6000803e3d6000fd5b50905060016003600082825462000c559190620016d8565b925050819055508060066000600354815260200190815260200160002060006101000a81548173ffffffffffffffffffffffffffffffffffffffff021916908373ffffffffffffffffffffffffffffffffffffffff160217905550600060646004548862000cc491906200176d565b62000cd0919062001735565b8762000cdd9190620017ce565b90508273ffffffffffffffffffffffffffffffffffffffff166323b872dd3084846040518463ffffffff1660e01b815260040162000d1e93929190620014cb565b602060405180830381600087803b15801562000d3957600080fd5b505af115801562000d4e573d6000803e3d6000fd5b505050506040513d601f19601f8201168201806040525081019062000d74919062001119565b62000d7e57600080fd5b6000808773ffffffffffffffffffffffffffffffffffffffff1660055460405162000da99062001406565b60006040518083038185875af1925050503d806000811462000de8576040519150601f19603f3d011682016040523d82523d6000602084013e62000ded565b606091505b50915091508162000e35576040517f08c379a000000000000000000000000000000000000000000000000000000000815260040162000e2c906200158b565b60405180910390fd5b888473ffffffffffffffffffffffffffffffffffffffff163373ffffffffffffffffffffffffffffffffffffffff167fe98fbd4d7d5a3fe7eec1cd1cd63e4d167dafe321d7589bcbb3c839ad41dc3ad160405160405180910390a4505050505050505050565b600033905090565b62000ead620003b3565b62000eef576040517f08c379a000000000000000000000000000000000000000000000000000000000815260040162000ee69062001525565b60405180910390fd5b6000600260006101000a81548160ff0219169083151502179055507f5db9ee0a495bf2e6ff9c91a7834c1ba4fdd244a5e8aa4e537bd38aeae4b073aa62000f3562000e9b565b60405162000f4491906200141d565b60405180910390a1565b62000f58620003b3565b1562000f9b576040517f08c379a000000000000000000000000000000000000000000000000000000000815260040162000f9290620015cf565b60405180910390fd5b6001600260006101000a81548160ff0219169083151502179055507f62e78cea01bee320cd4e420270b5ea74000d11b0c9f74754ebdbfc544b05a25862000fe162000e9b565b60405162000ff091906200141d565b60405180910390a1565b61155d8062001bbc83390190565b60006200101f62001019846200167b565b62001652565b9050828152602081018484840111156200103857600080fd5b62001045848285620018a3565b509392505050565b6000813590506200105e8162001b53565b92915050565b600081359050620010758162001b6d565b92915050565b6000815190506200108c8162001b87565b92915050565b600082601f830112620010a457600080fd5b8135620010b684826020860162001008565b91505092915050565b600081359050620010d08162001ba1565b92915050565b600081519050620010e78162001ba1565b92915050565b6000602082840312156200110057600080fd5b600062001110848285016200104d565b91505092915050565b6000602082840312156200112c57600080fd5b60006200113c848285016200107b565b91505092915050565b6000602082840312156200115857600080fd5b60006200116884828501620010bf565b91505092915050565b6000602082840312156200118457600080fd5b60006200119484828501620010d6565b91505092915050565b60008060008060808587031215620011b457600080fd5b6000620011c487828801620010bf565b9450506020620011d78782880162001064565b935050604085013567ffffffffffffffff811115620011f557600080fd5b620012038782880162001092565b92505060606200121687828801620010bf565b91505092959194509250565b6200122d8162001867565b82525050565b6200123e8162001809565b82525050565b6200124f8162001831565b82525050565b60006200126282620016b1565b6200126e8185620016c7565b935062001280818560208601620018b2565b6200128b81620019ab565b840191505092915050565b6000620012a5601483620016c7565b9150620012b282620019bc565b602082019050919050565b6000620012cc601a83620016c7565b9150620012d982620019e5565b602082019050919050565b6000620012f3602683620016c7565b9150620013008262001a0e565b604082019050919050565b60006200131a601483620016c7565b9150620013278262001a5d565b602082019050919050565b600062001341601c83620016c7565b91506200134e8262001a86565b602082019050919050565b600062001368601083620016c7565b9150620013758262001aaf565b602082019050919050565b60006200138f602083620016c7565b91506200139c8262001ad8565b602082019050919050565b6000620013b6602283620016c7565b9150620013c38262001b01565b604082019050919050565b6000620013dd600083620016bc565b9150620013ea8262001b50565b600082019050919050565b62001400816200185d565b82525050565b60006200141382620013ce565b9150819050919050565b600060208201905062001434600083018462001233565b92915050565b600060408201905062001451600083018562001233565b62001460602083018462001233565b9392505050565b600060a0820190506200147e600083018862001233565b6200148d602083018762001222565b8181036040830152620014a1818662001255565b9050620014b26060830185620013f5565b620014c1608083018462001233565b9695505050505050565b6000606082019050620014e2600083018662001233565b620014f1602083018562001233565b620015006040830184620013f5565b949350505050565b60006020820190506200151f600083018462001244565b92915050565b60006020820190508181036000830152620015408162001296565b9050919050565b600060208201905081810360008301526200156281620012bd565b9050919050565b600060208201905081810360008301526200158481620012e4565b9050919050565b60006020820190508181036000830152620015a6816200130b565b9050919050565b60006020820190508181036000830152620015c88162001332565b9050919050565b60006020820190508181036000830152620015ea8162001359565b9050919050565b600060208201905081810360008301526200160c8162001380565b9050919050565b600060208201905081810360008301526200162e81620013a7565b9050919050565b60006020820190506200164c6000830184620013f5565b92915050565b60006200165e62001671565b90506200166c8282620018e8565b919050565b6000604051905090565b600067ffffffffffffffff8211156200169957620016986200197c565b5b620016a482620019ab565b9050602081019050919050565b600081519050919050565b600081905092915050565b600082825260208201905092915050565b6000620016e5826200185d565b9150620016f2836200185d565b9250827fffffffffffffffffffffffffffffffffffffffffffffffffffffffffffffffff038211156200172a57620017296200191e565b5b828201905092915050565b600062001742826200185d565b91506200174f836200185d565b9250826200176257620017616200194d565b5b828204905092915050565b60006200177a826200185d565b915062001787836200185d565b9250817fffffffffffffffffffffffffffffffffffffffffffffffffffffffffffffffff0483118215151615620017c357620017c26200191e565b5b828202905092915050565b6000620017db826200185d565b9150620017e8836200185d565b925082821015620017fe57620017fd6200191e565b5b828203905092915050565b600062001816826200183d565b9050919050565b60006200182a826200183d565b9050919050565b60008115159050919050565b600073ffffffffffffffffffffffffffffffffffffffff82169050919050565b6000819050919050565b600062001874826200187b565b9050919050565b600062001888826200188f565b9050919050565b60006200189c826200183d565b9050919050565b82818337600083830152505050565b60005b83811015620018d2578082015181840152602081019050620018b5565b83811115620018e2576000848401525b50505050565b620018f382620019ab565b810181811067ffffffffffffffff821117156200191557620019146200197c565b5b80604052505050565b7f4e487b7100000000000000000000000000000000000000000000000000000000600052601160045260246000fd5b7f4e487b7100000000000000000000000000000000000000000000000000000000600052601260045260246000fd5b7f4e487b7100000000000000000000000000000000000000000000000000000000600052604160045260246000fd5b6000601f19601f8301169050919050565b7f5061757361626c653a206e6f7420706175736564000000000000000000000000600082015250565b7f496e73756666696369656e742065726332302062616c616e6365000000000000600082015250565b7f4f776e61626c653a206e6577206f776e657220697320746865207a65726f206160008201527f6464726573730000000000000000000000000000000000000000000000000000602082015250565b7f4661696c656420746f2073656e64204574686572000000000000000000000000600082015250565b7f496e73756666696369656e7420657263323020616c6c6f77616e636500000000600082015250565b7f5061757361626c653a2070617573656400000000000000000000000000000000600082015250565b7f4f776e61626c653a2063616c6c6572206973206e6f7420746865206f776e6572600082015250565b7f436f756c64206e6f742067657420746f6b656e732066726f6d20637573746f6d60008201527f6572000000000000000000000000000000000000000000000000000000000000602082015250565b50565b62001b5e8162001809565b811462001b6a57600080fd5b50565b62001b78816200181d565b811462001b8457600080fd5b50565b62001b928162001831565b811462001b9e57600080fd5b50565b62001bac816200185d565b811462001bb857600080fd5b5056fe60806040523480156200001157600080fd5b506040516200155d3803806200155d8339818101604052810190620000379190620002b5565b33600160006101000a81548173ffffffffffffffffffffffffffffffffffffffff021916908373ffffffffffffffffffffffffffffffffffffffff160217905550846000806101000a81548173ffffffffffffffffffffffffffffffffffffffff021916908373ffffffffffffffffffffffffffffffffffffffff16021790555083600260006101000a81548173ffffffffffffffffffffffffffffffffffffffff021916908373ffffffffffffffffffffffffffffffffffffffff16021790555082600390805190602001906200011192919062000165565b508160048190555080600560006101000a81548173ffffffffffffffffffffffffffffffffffffffff021916908373ffffffffffffffffffffffffffffffffffffffff160217905550505050505062000532565b828054620001739062000423565b90600052602060002090601f016020900481019282620001975760008555620001e3565b82601f10620001b257805160ff1916838001178555620001e3565b82800160010185558215620001e3579182015b82811115620001e2578251825591602001919060010190620001c5565b5b509050620001f29190620001f6565b5090565b5b8082111562000211576000816000905550600101620001f7565b5090565b60006200022c620002268462000379565b62000350565b9050828152602081018484840111156200024557600080fd5b62000252848285620003ed565b509392505050565b6000815190506200026b81620004fe565b92915050565b600082601f8301126200028357600080fd5b81516200029584826020860162000215565b91505092915050565b600081519050620002af8162000518565b92915050565b600080600080600060a08688031215620002ce57600080fd5b6000620002de888289016200025a565b9550506020620002f1888289016200025a565b945050604086015167ffffffffffffffff8111156200030f57600080fd5b6200031d8882890162000271565b935050606062000330888289016200029e565b925050608062000343888289016200025a565b9150509295509295909350565b60006200035c6200036f565b90506200036a828262000459565b919050565b6000604051905090565b600067ffffffffffffffff821115620003975762000396620004be565b5b620003a282620004ed565b9050602081019050919050565b6000620003bc82620003c3565b9050919050565b600073ffffffffffffffffffffffffffffffffffffffff82169050919050565b6000819050919050565b60005b838110156200040d578082015181840152602081019050620003f0565b838111156200041d576000848401525b50505050565b600060028204905060018216806200043c57607f821691505b602082108114156200045357620004526200048f565b5b50919050565b6200046482620004ed565b810181811067ffffffffffffffff82111715620004865762000485620004be565b5b80604052505050565b7f4e487b7100000000000000000000000000000000000000000000000000000000600052602260045260246000fd5b7f4e487b7100000000000000000000000000000000000000000000000000000000600052604160045260246000fd5b6000601f19601f8301169050919050565b6200050981620003af565b81146200051557600080fd5b50565b6200052381620003e3565b81146200052f57600080fd5b50565b61101b80620005426000396000f3fe608060405234801561001057600080fd5b506004361061009e5760003560e01c80639d76ea58116100665780639d76ea5814610147578063b3af59d414610165578063c45a015514610183578063eac989f8146101a1578063f3290d75146101bf5761009e565b806339204117146100a357806341566585146100bf57806382971a84146100db5780638da5cb5b146100f95780639b19251a14610117575b600080fd5b6100bd60048036038101906100b89190610a35565b6101db565b005b6100d960048036038101906100d49190610a35565b6104d2565b005b6100e36106bf565b6040516100f09190610d60565b60405180910390f35b6101016106c5565b60405161010e9190610be8565b60405180910390f35b610131600480360381019061012c9190610a35565b6106e9565b60405161013e9190610c63565b60405180910390f35b61014f610709565b60405161015c9190610be8565b60405180910390f35b61016d61072f565b60405161017a9190610be8565b60405180910390f35b61018b610755565b6040516101989190610be8565b60405180910390f35b6101a961077b565b6040516101b69190610c7e565b60405180910390f35b6101d960048036038101906101d49190610a35565b610809565b005b600260009054906101000a900473ffffffffffffffffffffffffffffffffffffffff1673ffffffffffffffffffffffffffffffffffffffff163373ffffffffffffffffffffffffffffffffffffffff161461023557600080fd5b60011515600660008373ffffffffffffffffffffffffffffffffffffffff1673ffffffffffffffffffffffffffffffffffffffff16815260200190815260200160002060009054906101000a900460ff161515146102c8576040517f08c379a00000000000000000000000000000000000000000000000000000000081526004016102bf90610ce0565b60405180910390fd5b6000600560009054906101000a900473ffffffffffffffffffffffffffffffffffffffff1690506004548173ffffffffffffffffffffffffffffffffffffffff166370a08231306040518263ffffffff1660e01b815260040161032b9190610be8565b60206040518083038186803b15801561034357600080fd5b505afa158015610357573d6000803e3d6000fd5b505050506040513d601f19601f8201168201806040525081019061037b9190610a87565b10156103bc576040517f08c379a00000000000000000000000000000000000000000000000000000000081526004016103b390610ca0565b60405180910390fd5b600115158173ffffffffffffffffffffffffffffffffffffffff166323b872dd30856004546040518463ffffffff1660e01b81526004016103ff93929190610c03565b602060405180830381600087803b15801561041957600080fd5b505af115801561042d573d6000803e3d6000fd5b505050506040513d601f19601f820116820180604052508101906104519190610a5e565b151514610493576040517f08c379a000000000000000000000000000000000000000000000000000000000815260040161048a90610d20565b60405180910390fd5b7ff7e8b307dd9151a22531391287117d703ae3480e5d287e15410155081dbb7115826004546040516104c6929190610c3a565b60405180910390a15050565b60008054906101000a900473ffffffffffffffffffffffffffffffffffffffff1673ffffffffffffffffffffffffffffffffffffffff163373ffffffffffffffffffffffffffffffffffffffff161461052a57600080fd5b600073ffffffffffffffffffffffffffffffffffffffff168173ffffffffffffffffffffffffffffffffffffffff16141561059a576040517f08c379a000000000000000000000000000000000000000000000000000000000815260040161059190610cc0565b60405180910390fd5b60001515600660008373ffffffffffffffffffffffffffffffffffffffff1673ffffffffffffffffffffffffffffffffffffffff16815260200190815260200160002060009054906101000a900460ff1615151461062d576040517f08c379a000000000000000000000000000000000000000000000000000000000815260040161062490610d00565b60405180910390fd5b6001600660008373ffffffffffffffffffffffffffffffffffffffff1673ffffffffffffffffffffffffffffffffffffffff16815260200190815260200160002060006101000a81548160ff0219169083151502179055507faab7954e9d246b167ef88aeddad35209ca2489d95a8aeb59e288d9b19fae5a54816040516106b49190610be8565b60405180910390a150565b60045481565b60008054906101000a900473ffffffffffffffffffffffffffffffffffffffff1681565b60066020528060005260406000206000915054906101000a900460ff1681565b600560009054906101000a900473ffffffffffffffffffffffffffffffffffffffff1681565b600260009054906101000a900473ffffffffffffffffffffffffffffffffffffffff1681565b600160009054906101000a900473ffffffffffffffffffffffffffffffffffffffff1681565b6003805461078890610e12565b80601f01602080910402602001604051908101604052809291908181526020018280546107b490610e12565b80156108015780601f106107d657610100808354040283529160200191610801565b820191906000526020600020905b8154815290600101906020018083116107e457829003601f168201915b505050505081565b60008054906101000a900473ffffffffffffffffffffffffffffffffffffffff1673ffffffffffffffffffffffffffffffffffffffff163373ffffffffffffffffffffffffffffffffffffffff161461086157600080fd5b600073ffffffffffffffffffffffffffffffffffffffff168173ffffffffffffffffffffffffffffffffffffffff1614156108d1576040517f08c379a00000000000000000000000000000000000000000000000000000000081526004016108c890610cc0565b60405180910390fd5b60011515600660008373ffffffffffffffffffffffffffffffffffffffff1673ffffffffffffffffffffffffffffffffffffffff16815260200190815260200160002060009054906101000a900460ff16151514610964576040517f08c379a000000000000000000000000000000000000000000000000000000000815260040161095b90610d40565b60405180910390fd5b6000600660008373ffffffffffffffffffffffffffffffffffffffff1673ffffffffffffffffffffffffffffffffffffffff16815260200190815260200160002060006101000a81548160ff0219169083151502179055507fffa4e6181777692565cf28528fc88fd1516ea86b56da075235fa575af6a4b855816040516109eb9190610be8565b60405180910390a150565b600081359050610a0581610fa0565b92915050565b600081519050610a1a81610fb7565b92915050565b600081519050610a2f81610fce565b92915050565b600060208284031215610a4757600080fd5b6000610a55848285016109f6565b91505092915050565b600060208284031215610a7057600080fd5b6000610a7e84828501610a0b565b91505092915050565b600060208284031215610a9957600080fd5b6000610aa784828501610a20565b91505092915050565b610ab981610d97565b82525050565b610ac881610da9565b82525050565b6000610ad982610d7b565b610ae38185610d86565b9350610af3818560208601610ddf565b610afc81610e73565b840191505092915050565b6000610b14601a83610d86565b9150610b1f82610e84565b602082019050919050565b6000610b37600983610d86565b9150610b4282610ead565b602082019050919050565b6000610b5a601f83610d86565b9150610b6582610ed6565b602082019050919050565b6000610b7d601b83610d86565b9150610b8882610eff565b602082019050919050565b6000610ba0602483610d86565b9150610bab82610f28565b604082019050919050565b6000610bc3601b83610d86565b9150610bce82610f77565b602082019050919050565b610be281610dd5565b82525050565b6000602082019050610bfd6000830184610ab0565b92915050565b6000606082019050610c186000830186610ab0565b610c256020830185610ab0565b610c326040830184610bd9565b949350505050565b6000604082019050610c4f6000830185610ab0565b610c5c6020830184610bd9565b9392505050565b6000602082019050610c786000830184610abf565b92915050565b60006020820190508181036000830152610c988184610ace565b905092915050565b60006020820190508181036000830152610cb981610b07565b9050919050565b60006020820190508181036000830152610cd981610b2a565b9050919050565b60006020820190508181036000830152610cf981610b4d565b9050919050565b60006020820190508181036000830152610d1981610b70565b9050919050565b60006020820190508181036000830152610d3981610b93565b9050919050565b60006020820190508181036000830152610d5981610bb6565b9050919050565b6000602082019050610d756000830184610bd9565b92915050565b600081519050919050565b600082825260208201905092915050565b6000610da282610db5565b9050919050565b60008115159050919050565b600073ffffffffffffffffffffffffffffffffffffffff82169050919050565b6000819050919050565b60005b83811015610dfd578082015181840152602081019050610de2565b83811115610e0c576000848401525b50505050565b60006002820490506001821680610e2a57607f821691505b60208210811415610e3e57610e3d610e44565b5b50919050565b7f4e487b7100000000000000000000000000000000000000000000000000000000600052602260045260246000fd5b6000601f19601f8301169050919050565b7f496e73756666696369656e742065726332302062616c616e6365000000000000600082015250565b7f4164647265737320300000000000000000000000000000000000000000000000600082015250565b7f576562736974652061646472657373206e6f742077686974656c697374656400600082015250565b7f4164647265737320616c72656164792077686974656c69737465640000000000600082015250565b7f436f756c64206e6f742073656e6420746f6b656e7320746f207468652077656260008201527f7369746500000000000000000000000000000000000000000000000000000000602082015250565b7f4164647265737320616c726561647920626c61636b6c69737465640000000000600082015250565b610fa981610d97565b8114610fb457600080fd5b50565b610fc081610da9565b8114610fcb57600080fd5b50565b610fd781610dd5565b8114610fe257600080fd5b5056fea264697066735822122011778b0b51c33c06b6bcfe0e21951cc1d2d7a33201c60d6e3937aaa6eb96749364736f6c63430008040033a2646970667358221220ab6162b40d7d922df905ea770b1dea4b68647aae595b2a85078f40901dd1b9a264736f6c63430008040033",
  "immutableReferences": {},
  "source": "// SPDX-License-Identifier: MIT\npragma solidity ^0.8.4;\n\nimport \"./Ownable.sol\";\nimport \"./ReentrancyGuard.sol\";\nimport \"./Pausable.sol\";\nimport \"./Dai.sol\";\nimport \"./AdEthNFT.sol\";\n\ncontract AdEthFactory is Ownable, ReentrancyGuard, Pausable {\n  address public erc20Address;\n  uint public idCounter;\n  uint public fee;\n  uint public ethToPayTx;\n\n  mapping(uint => address) public AdEthNFTs;\n\n  event ReceivedEther(address indexed sender, uint indexed amount);\n  event FactoryProduction(address indexed customer, address indexed AdEthNFT, uint indexed budget);\n  event NewFeeSet(uint indexed _newFee);\n  \n  constructor(address _erc20Address, uint _fee) {\n    erc20Address = _erc20Address;\n    idCounter = 0;\n    fee = _fee;\n    ethToPayTx = 20000000;\n  }\n\n  receive() external payable whenNotPaused {\n    emit ReceivedEther(msg.sender, msg.value);\n  }\n  \n  fallback() external payable {\n    revert();\n  }\n\n  function lockContract() public onlyOwner {\n    _pause();\n  }\n\n  function unlockContract() public onlyOwner {\n    _unpause();\n  }\n\n  function setFee(uint _newFee) public onlyOwner {\n    fee = _newFee;\n    emit NewFeeSet(_newFee);\n  }\n\n  function createAdEthNFT(uint256 budget, address payable _newAdCaller, string memory _newUri, uint256 _newCpc) public {\n    Dai tokenContract = Dai(erc20Address);\n    require(tokenContract.balanceOf(msg.sender) >= budget, \"Insufficient erc20 balance\");\n    require(tokenContract.allowance(msg.sender, address(this)) >= budget, \"Insufficient erc20 allowance\");\n    require(tokenContract.transferFrom(msg.sender, address(this), budget) == true, \"Could not get tokens from customer\");\n\n    AdEthNFT newAdEthNFT = new AdEthNFT(msg.sender, _newAdCaller, _newUri, _newCpc, erc20Address);\n    idCounter += 1;\n    AdEthNFTs[idCounter] = address(newAdEthNFT);\n    uint budgetMinusFee = budget - (budget * fee / 100);\n    require(tokenContract.transferFrom(address(this), address(newAdEthNFT), budgetMinusFee));\n    (bool sent, bytes memory data) = _newAdCaller.call{value: ethToPayTx}(\"\");\n    require(sent, \"Failed to send Ether\");\n    emit FactoryProduction(msg.sender, address(newAdEthNFT), budget);\n  }\n}",
  "sourcePath": "C:/Users/rapha/Documents/IT/AdETH/contracts/AdEthFactory.sol",
  "compiler": {
    "name": "solc",
    "version": "0.8.4+commit.c7e474f2.Emscripten.clang"
  },
  "schemaVersion": "3.4.0",
  "updatedAt": "2021-05-29T21:05:21.214Z",
  "networkType": "ethereum",
  "devdoc": {
    "kind": "dev",
    "methods": {
      "owner()": {
        "details": "Returns the address of the current owner."
      },
      "paused()": {
        "details": "Returns true if the contract is paused, and false otherwise."
      },
      "renounceOwnership()": {
        "details": "Leaves the contract without owner. It will not be possible to call `onlyOwner` functions anymore. Can only be called by the current owner. NOTE: Renouncing ownership will leave the contract without an owner, thereby removing any functionality that is only available to the owner."
      },
      "transferOwnership(address)": {
        "details": "Transfers ownership of the contract to a new account (`newOwner`). Can only be called by the current owner."
      }
    },
    "version": 1
  },
  "userdoc": {
    "kind": "user",
    "methods": {},
    "version": 1
  }
}