{
  "contractName": "AdEthFactory",
  "abi": [
    {
      "inputs": [
        {
          "internalType": "address",
          "name": "_erc20Address",
          "type": "address"
        },
        {
          "internalType": "uint256",
          "name": "_fee",
          "type": "uint256"
        }
      ],
      "stateMutability": "nonpayable",
      "type": "constructor"
    },
    {
      "anonymous": false,
      "inputs": [
        {
          "indexed": true,
          "internalType": "address",
          "name": "customer",
          "type": "address"
        },
        {
          "indexed": true,
          "internalType": "address",
          "name": "AdEthNFT",
          "type": "address"
        },
        {
          "indexed": true,
          "internalType": "uint256",
          "name": "budget",
          "type": "uint256"
        }
      ],
      "name": "FactoryProduction",
      "type": "event"
    },
    {
      "anonymous": false,
      "inputs": [
        {
          "indexed": true,
          "internalType": "uint256",
          "name": "_newFee",
          "type": "uint256"
        }
      ],
      "name": "NewFeeSet",
      "type": "event"
    },
    {
      "anonymous": false,
      "inputs": [
        {
          "indexed": true,
          "internalType": "address",
          "name": "previousOwner",
          "type": "address"
        },
        {
          "indexed": true,
          "internalType": "address",
          "name": "newOwner",
          "type": "address"
        }
      ],
      "name": "OwnershipTransferred",
      "type": "event"
    },
    {
      "anonymous": false,
      "inputs": [
        {
          "indexed": false,
          "internalType": "address",
          "name": "account",
          "type": "address"
        }
      ],
      "name": "Paused",
      "type": "event"
    },
    {
      "anonymous": false,
      "inputs": [
        {
          "indexed": true,
          "internalType": "address",
          "name": "sender",
          "type": "address"
        },
        {
          "indexed": true,
          "internalType": "uint256",
          "name": "amount",
          "type": "uint256"
        }
      ],
      "name": "ReceivedEther",
      "type": "event"
    },
    {
      "anonymous": false,
      "inputs": [
        {
          "indexed": false,
          "internalType": "address",
          "name": "account",
          "type": "address"
        }
      ],
      "name": "Unpaused",
      "type": "event"
    },
    {
      "stateMutability": "payable",
      "type": "fallback",
      "payable": true
    },
    {
      "inputs": [
        {
          "internalType": "uint256",
          "name": "",
          "type": "uint256"
        }
      ],
      "name": "AdEthNFTs",
      "outputs": [
        {
          "internalType": "address",
          "name": "",
          "type": "address"
        }
      ],
      "stateMutability": "view",
      "type": "function",
      "constant": true
    },
    {
      "inputs": [],
      "name": "erc20Address",
      "outputs": [
        {
          "internalType": "address",
          "name": "",
          "type": "address"
        }
      ],
      "stateMutability": "view",
      "type": "function",
      "constant": true
    },
    {
      "inputs": [],
      "name": "fee",
      "outputs": [
        {
          "internalType": "uint256",
          "name": "",
          "type": "uint256"
        }
      ],
      "stateMutability": "view",
      "type": "function",
      "constant": true
    },
    {
      "inputs": [],
      "name": "idCounter",
      "outputs": [
        {
          "internalType": "uint256",
          "name": "",
          "type": "uint256"
        }
      ],
      "stateMutability": "view",
      "type": "function",
      "constant": true
    },
    {
      "inputs": [],
      "name": "owner",
      "outputs": [
        {
          "internalType": "address",
          "name": "",
          "type": "address"
        }
      ],
      "stateMutability": "view",
      "type": "function",
      "constant": true
    },
    {
      "inputs": [],
      "name": "paused",
      "outputs": [
        {
          "internalType": "bool",
          "name": "",
          "type": "bool"
        }
      ],
      "stateMutability": "view",
      "type": "function",
      "constant": true
    },
    {
      "inputs": [],
      "name": "renounceOwnership",
      "outputs": [],
      "stateMutability": "nonpayable",
      "type": "function"
    },
    {
      "inputs": [
        {
          "internalType": "address",
          "name": "newOwner",
          "type": "address"
        }
      ],
      "name": "transferOwnership",
      "outputs": [],
      "stateMutability": "nonpayable",
      "type": "function"
    },
    {
      "stateMutability": "payable",
      "type": "receive",
      "payable": true
    },
    {
      "inputs": [],
      "name": "lockContract",
      "outputs": [],
      "stateMutability": "nonpayable",
      "type": "function"
    },
    {
      "inputs": [],
      "name": "unlockContract",
      "outputs": [],
      "stateMutability": "nonpayable",
      "type": "function"
    },
    {
      "inputs": [
        {
          "internalType": "uint256",
          "name": "_newFee",
          "type": "uint256"
        }
      ],
      "name": "setFee",
      "outputs": [],
      "stateMutability": "nonpayable",
      "type": "function"
    },
    {
      "inputs": [
        {
          "internalType": "uint256",
          "name": "budget",
          "type": "uint256"
        }
      ],
      "name": "deposit",
      "outputs": [],
      "stateMutability": "nonpayable",
      "type": "function"
    },
    {
      "inputs": [
        {
          "internalType": "uint256",
          "name": "budget",
          "type": "uint256"
        },
        {
          "internalType": "address",
          "name": "_newAdCaller",
          "type": "address"
        },
        {
          "internalType": "string",
          "name": "_newUri",
          "type": "string"
        },
        {
          "internalType": "uint256",
          "name": "_newCpc",
          "type": "uint256"
        }
      ],
      "name": "createAdEthNFT",
      "outputs": [],
      "stateMutability": "nonpayable",
      "type": "function"
    }
  ],
  "bytecode": "0x60806040523480156200001157600080fd5b506040516200319a3803806200319a833981810160405281019062000037919062000197565b6000620000496200016160201b60201c565b9050806000806101000a81548173ffffffffffffffffffffffffffffffffffffffff021916908373ffffffffffffffffffffffffffffffffffffffff1602179055508073ffffffffffffffffffffffffffffffffffffffff16600073ffffffffffffffffffffffffffffffffffffffff167f8be0079c531659141344cd1fd0a4f28419497f9722a3daafe3b4186f6b6457e060405160405180910390a350600180819055506000600260006101000a81548160ff02191690831515021790555081600260016101000a81548173ffffffffffffffffffffffffffffffffffffffff021916908373ffffffffffffffffffffffffffffffffffffffff16021790555080600481905550600060038190555050506200024a565b600033905090565b6000815190506200017a8162000216565b92915050565b600081519050620001918162000230565b92915050565b60008060408385031215620001ab57600080fd5b6000620001bb8582860162000169565b9250506020620001ce8582860162000180565b9150509250929050565b6000620001e582620001ec565b9050919050565b600073ffffffffffffffffffffffffffffffffffffffff82169050919050565b6000819050919050565b6200022181620001d8565b81146200022d57600080fd5b50565b6200023b816200020c565b81146200024757600080fd5b50565b612f40806200025a6000396000f3fe608060405260043610620000d95760003560e01c8063753868e3116200008b578063ddca3f431162000061578063ddca3f4314620002f5578063eb08ab281462000325578063f2fde38b1462000355578063f85336f214620003835762000172565b8063753868e3146200027d5780638da5cb5b1462000297578063b6b55f2514620002c75762000172565b806322f0f2f91462000177578063276184ae1462000191578063354b890514620001c15780635c975abb146200020557806369fe0e2d1462000235578063715018a614620002635762000172565b366200017257620000e9620003b1565b156200012c576040517f08c379a0000000000000000000000000000000000000000000000000000000008152600401620001239062001462565b60405180910390fd5b343373ffffffffffffffffffffffffffffffffffffffff167fa419615bc8fda4c87663805ee2a3597a6d71c1d476911d9892f340d965bc7bf160405160405180910390a3005b600080fd5b3480156200018457600080fd5b506200018f620003c8565b005b3480156200019e57600080fd5b50620001a962000457565b604051620001b89190620012d2565b60405180910390f35b348015620001ce57600080fd5b50620001ed6004803603810190620001e7919062001070565b6200047d565b604051620001fc9190620012d2565b60405180910390f35b3480156200021257600080fd5b506200021d620003b1565b6040516200022c9190620013bd565b60405180910390f35b3480156200024257600080fd5b506200026160048036038101906200025b919062001070565b620004b0565b005b3480156200027057600080fd5b506200027b6200056a565b005b3480156200028a57600080fd5b5062000295620006ab565b005b348015620002a457600080fd5b50620002af6200073a565b604051620002be9190620012d2565b60405180910390f35b348015620002d457600080fd5b50620002f36004803603810190620002ed919062001070565b62000763565b005b3480156200030257600080fd5b506200030d62000766565b6040516200031c9190620014c8565b60405180910390f35b3480156200033257600080fd5b506200033d6200076c565b6040516200034c9190620014c8565b60405180910390f35b3480156200036257600080fd5b506200038160048036038101906200037b919062001018565b62000772565b005b3480156200039057600080fd5b50620003af6004803603810190620003a99190620010c8565b62000925565b005b6000600260009054906101000a900460ff16905090565b620003d262000ddd565b73ffffffffffffffffffffffffffffffffffffffff16620003f26200073a565b73ffffffffffffffffffffffffffffffffffffffff16146200044b576040517f08c379a0000000000000000000000000000000000000000000000000000000008152600401620004429062001484565b60405180910390fd5b6200045562000de5565b565b600260019054906101000a900473ffffffffffffffffffffffffffffffffffffffff1681565b60056020528060005260406000206000915054906101000a900473ffffffffffffffffffffffffffffffffffffffff1681565b620004ba62000ddd565b73ffffffffffffffffffffffffffffffffffffffff16620004da6200073a565b73ffffffffffffffffffffffffffffffffffffffff161462000533576040517f08c379a00000000000000000000000000000000000000000000000000000000081526004016200052a9062001484565b60405180910390fd5b80600481905550807f7214ada276dda68e2460c8f5b3a610e54171aeab13399f9fb3653226d30c327e60405160405180910390a250565b6200057462000ddd565b73ffffffffffffffffffffffffffffffffffffffff16620005946200073a565b73ffffffffffffffffffffffffffffffffffffffff1614620005ed576040517f08c379a0000000000000000000000000000000000000000000000000000000008152600401620005e49062001484565b60405180910390fd5b600073ffffffffffffffffffffffffffffffffffffffff1660008054906101000a900473ffffffffffffffffffffffffffffffffffffffff1673ffffffffffffffffffffffffffffffffffffffff167f8be0079c531659141344cd1fd0a4f28419497f9722a3daafe3b4186f6b6457e060405160405180910390a360008060006101000a81548173ffffffffffffffffffffffffffffffffffffffff021916908373ffffffffffffffffffffffffffffffffffffffff160217905550565b620006b562000ddd565b73ffffffffffffffffffffffffffffffffffffffff16620006d56200073a565b73ffffffffffffffffffffffffffffffffffffffff16146200072e576040517f08c379a0000000000000000000000000000000000000000000000000000000008152600401620007259062001484565b60405180910390fd5b6200073862000e90565b565b60008060009054906101000a900473ffffffffffffffffffffffffffffffffffffffff16905090565b50565b60045481565b60035481565b6200077c62000ddd565b73ffffffffffffffffffffffffffffffffffffffff166200079c6200073a565b73ffffffffffffffffffffffffffffffffffffffff1614620007f5576040517f08c379a0000000000000000000000000000000000000000000000000000000008152600401620007ec9062001484565b60405180910390fd5b600073ffffffffffffffffffffffffffffffffffffffff168173ffffffffffffffffffffffffffffffffffffffff16141562000868576040517f08c379a00000000000000000000000000000000000000000000000000000000081526004016200085f906200141e565b60405180910390fd5b8073ffffffffffffffffffffffffffffffffffffffff1660008054906101000a900473ffffffffffffffffffffffffffffffffffffffff1673ffffffffffffffffffffffffffffffffffffffff167f8be0079c531659141344cd1fd0a4f28419497f9722a3daafe3b4186f6b6457e060405160405180910390a3806000806101000a81548173ffffffffffffffffffffffffffffffffffffffff021916908373ffffffffffffffffffffffffffffffffffffffff16021790555050565b6000600260019054906101000a900473ffffffffffffffffffffffffffffffffffffffff169050848173ffffffffffffffffffffffffffffffffffffffff166370a08231336040518263ffffffff1660e01b8152600401620009889190620012d2565b60206040518083038186803b158015620009a157600080fd5b505afa158015620009b6573d6000803e3d6000fd5b505050506040513d601f19601f82011682018060405250810190620009dc91906200109c565b101562000a20576040517f08c379a000000000000000000000000000000000000000000000000000000000815260040162000a1790620013fc565b60405180910390fd5b848173ffffffffffffffffffffffffffffffffffffffff1663dd62ed3e33306040518363ffffffff1660e01b815260040162000a5e929190620012ef565b60206040518083038186803b15801562000a7757600080fd5b505afa15801562000a8c573d6000803e3d6000fd5b505050506040513d601f19601f8201168201806040525081019062000ab291906200109c565b101562000af6576040517f08c379a000000000000000000000000000000000000000000000000000000000815260040162000aed9062001440565b60405180910390fd5b600115158173ffffffffffffffffffffffffffffffffffffffff166323b872dd3330896040518463ffffffff1660e01b815260040162000b399392919062001380565b602060405180830381600087803b15801562000b5457600080fd5b505af115801562000b69573d6000803e3d6000fd5b505050506040513d601f19601f8201168201806040525081019062000b8f919062001044565b15151462000bd4576040517f08c379a000000000000000000000000000000000000000000000000000000000815260040162000bcb90620014a6565b60405180910390fd5b600033858585600260019054906101000a900473ffffffffffffffffffffffffffffffffffffffff1660405162000c0b9062000f3c565b62000c1b9594939291906200131c565b604051809103906000f08015801562000c38573d6000803e3d6000fd5b50905060016003600082825462000c50919062001560565b925050819055508060056000600354815260200190815260200160002060006101000a81548173ffffffffffffffffffffffffffffffffffffffff021916908373ffffffffffffffffffffffffffffffffffffffff160217905550600060646004548862000cbf9190620015f5565b62000ccb9190620015bd565b8762000cd8919062001656565b90508273ffffffffffffffffffffffffffffffffffffffff166323b872dd3084846040518463ffffffff1660e01b815260040162000d199392919062001380565b602060405180830381600087803b15801562000d3457600080fd5b505af115801562000d49573d6000803e3d6000fd5b505050506040513d601f19601f8201168201806040525081019062000d6f919062001044565b62000d7957600080fd5b868273ffffffffffffffffffffffffffffffffffffffff163373ffffffffffffffffffffffffffffffffffffffff167fe98fbd4d7d5a3fe7eec1cd1cd63e4d167dafe321d7589bcbb3c839ad41dc3ad160405160405180910390a450505050505050565b600033905090565b62000def620003b1565b62000e31576040517f08c379a000000000000000000000000000000000000000000000000000000000815260040162000e2890620013da565b60405180910390fd5b6000600260006101000a81548160ff0219169083151502179055507f5db9ee0a495bf2e6ff9c91a7834c1ba4fdd244a5e8aa4e537bd38aeae4b073aa62000e7762000ddd565b60405162000e869190620012d2565b60405180910390a1565b62000e9a620003b1565b1562000edd576040517f08c379a000000000000000000000000000000000000000000000000000000000815260040162000ed49062001462565b60405180910390fd5b6001600260006101000a81548160ff0219169083151502179055507f62e78cea01bee320cd4e420270b5ea74000d11b0c9f74754ebdbfc544b05a25862000f2362000ddd565b60405162000f329190620012d2565b60405180910390a1565b61155d80620019ae83390190565b600062000f6162000f5b846200150e565b620014e5565b90508281526020810184848401111562000f7a57600080fd5b62000f87848285620016db565b509392505050565b60008135905062000fa0816200195f565b92915050565b60008151905062000fb78162001979565b92915050565b600082601f83011262000fcf57600080fd5b813562000fe184826020860162000f4a565b91505092915050565b60008135905062000ffb8162001993565b92915050565b600081519050620010128162001993565b92915050565b6000602082840312156200102b57600080fd5b60006200103b8482850162000f8f565b91505092915050565b6000602082840312156200105757600080fd5b6000620010678482850162000fa6565b91505092915050565b6000602082840312156200108357600080fd5b6000620010938482850162000fea565b91505092915050565b600060208284031215620010af57600080fd5b6000620010bf8482850162001001565b91505092915050565b60008060008060808587031215620010df57600080fd5b6000620010ef8782880162000fea565b9450506020620011028782880162000f8f565b935050604085013567ffffffffffffffff8111156200112057600080fd5b6200112e8782880162000fbd565b9250506060620011418782880162000fea565b91505092959194509250565b620011588162001691565b82525050565b6200116981620016a5565b82525050565b60006200117c8262001544565b6200118881856200154f565b93506200119a818560208601620016ea565b620011a581620017e3565b840191505092915050565b6000620011bf6014836200154f565b9150620011cc82620017f4565b602082019050919050565b6000620011e6601a836200154f565b9150620011f3826200181d565b602082019050919050565b60006200120d6026836200154f565b91506200121a8262001846565b604082019050919050565b600062001234601c836200154f565b9150620012418262001895565b602082019050919050565b60006200125b6010836200154f565b91506200126882620018be565b602082019050919050565b6000620012826020836200154f565b91506200128f82620018e7565b602082019050919050565b6000620012a96022836200154f565b9150620012b68262001910565b604082019050919050565b620012cc81620016d1565b82525050565b6000602082019050620012e960008301846200114d565b92915050565b60006040820190506200130660008301856200114d565b6200131560208301846200114d565b9392505050565b600060a0820190506200133360008301886200114d565b6200134260208301876200114d565b81810360408301526200135681866200116f565b9050620013676060830185620012c1565b6200137660808301846200114d565b9695505050505050565b60006060820190506200139760008301866200114d565b620013a660208301856200114d565b620013b56040830184620012c1565b949350505050565b6000602082019050620013d460008301846200115e565b92915050565b60006020820190508181036000830152620013f581620011b0565b9050919050565b600060208201905081810360008301526200141781620011d7565b9050919050565b600060208201905081810360008301526200143981620011fe565b9050919050565b600060208201905081810360008301526200145b8162001225565b9050919050565b600060208201905081810360008301526200147d816200124c565b9050919050565b600060208201905081810360008301526200149f8162001273565b9050919050565b60006020820190508181036000830152620014c1816200129a565b9050919050565b6000602082019050620014df6000830184620012c1565b92915050565b6000620014f162001504565b9050620014ff828262001720565b919050565b6000604051905090565b600067ffffffffffffffff8211156200152c576200152b620017b4565b5b6200153782620017e3565b9050602081019050919050565b600081519050919050565b600082825260208201905092915050565b60006200156d82620016d1565b91506200157a83620016d1565b9250827fffffffffffffffffffffffffffffffffffffffffffffffffffffffffffffffff03821115620015b257620015b162001756565b5b828201905092915050565b6000620015ca82620016d1565b9150620015d783620016d1565b925082620015ea57620015e962001785565b5b828204905092915050565b60006200160282620016d1565b91506200160f83620016d1565b9250817fffffffffffffffffffffffffffffffffffffffffffffffffffffffffffffffff04831182151516156200164b576200164a62001756565b5b828202905092915050565b60006200166382620016d1565b91506200167083620016d1565b92508282101562001686576200168562001756565b5b828203905092915050565b60006200169e82620016b1565b9050919050565b60008115159050919050565b600073ffffffffffffffffffffffffffffffffffffffff82169050919050565b6000819050919050565b82818337600083830152505050565b60005b838110156200170a578082015181840152602081019050620016ed565b838111156200171a576000848401525b50505050565b6200172b82620017e3565b810181811067ffffffffffffffff821117156200174d576200174c620017b4565b5b80604052505050565b7f4e487b7100000000000000000000000000000000000000000000000000000000600052601160045260246000fd5b7f4e487b7100000000000000000000000000000000000000000000000000000000600052601260045260246000fd5b7f4e487b7100000000000000000000000000000000000000000000000000000000600052604160045260246000fd5b6000601f19601f8301169050919050565b7f5061757361626c653a206e6f7420706175736564000000000000000000000000600082015250565b7f496e73756666696369656e742065726332302062616c616e6365000000000000600082015250565b7f4f776e61626c653a206e6577206f776e657220697320746865207a65726f206160008201527f6464726573730000000000000000000000000000000000000000000000000000602082015250565b7f496e73756666696369656e7420657263323020616c6c6f77616e636500000000600082015250565b7f5061757361626c653a2070617573656400000000000000000000000000000000600082015250565b7f4f776e61626c653a2063616c6c6572206973206e6f7420746865206f776e6572600082015250565b7f436f756c64206e6f742067657420746f6b656e732066726f6d20637573746f6d60008201527f6572000000000000000000000000000000000000000000000000000000000000602082015250565b6200196a8162001691565b81146200197657600080fd5b50565b6200198481620016a5565b81146200199057600080fd5b50565b6200199e81620016d1565b8114620019aa57600080fd5b5056fe60806040523480156200001157600080fd5b506040516200155d3803806200155d8339818101604052810190620000379190620002b5565b33600160006101000a81548173ffffffffffffffffffffffffffffffffffffffff021916908373ffffffffffffffffffffffffffffffffffffffff160217905550846000806101000a81548173ffffffffffffffffffffffffffffffffffffffff021916908373ffffffffffffffffffffffffffffffffffffffff16021790555083600260006101000a81548173ffffffffffffffffffffffffffffffffffffffff021916908373ffffffffffffffffffffffffffffffffffffffff16021790555082600390805190602001906200011192919062000165565b508160048190555080600560006101000a81548173ffffffffffffffffffffffffffffffffffffffff021916908373ffffffffffffffffffffffffffffffffffffffff160217905550505050505062000532565b828054620001739062000423565b90600052602060002090601f016020900481019282620001975760008555620001e3565b82601f10620001b257805160ff1916838001178555620001e3565b82800160010185558215620001e3579182015b82811115620001e2578251825591602001919060010190620001c5565b5b509050620001f29190620001f6565b5090565b5b8082111562000211576000816000905550600101620001f7565b5090565b60006200022c620002268462000379565b62000350565b9050828152602081018484840111156200024557600080fd5b62000252848285620003ed565b509392505050565b6000815190506200026b81620004fe565b92915050565b600082601f8301126200028357600080fd5b81516200029584826020860162000215565b91505092915050565b600081519050620002af8162000518565b92915050565b600080600080600060a08688031215620002ce57600080fd5b6000620002de888289016200025a565b9550506020620002f1888289016200025a565b945050604086015167ffffffffffffffff8111156200030f57600080fd5b6200031d8882890162000271565b935050606062000330888289016200029e565b925050608062000343888289016200025a565b9150509295509295909350565b60006200035c6200036f565b90506200036a828262000459565b919050565b6000604051905090565b600067ffffffffffffffff821115620003975762000396620004be565b5b620003a282620004ed565b9050602081019050919050565b6000620003bc82620003c3565b9050919050565b600073ffffffffffffffffffffffffffffffffffffffff82169050919050565b6000819050919050565b60005b838110156200040d578082015181840152602081019050620003f0565b838111156200041d576000848401525b50505050565b600060028204905060018216806200043c57607f821691505b602082108114156200045357620004526200048f565b5b50919050565b6200046482620004ed565b810181811067ffffffffffffffff82111715620004865762000485620004be565b5b80604052505050565b7f4e487b7100000000000000000000000000000000000000000000000000000000600052602260045260246000fd5b7f4e487b7100000000000000000000000000000000000000000000000000000000600052604160045260246000fd5b6000601f19601f8301169050919050565b6200050981620003af565b81146200051557600080fd5b50565b6200052381620003e3565b81146200052f57600080fd5b50565b61101b80620005426000396000f3fe608060405234801561001057600080fd5b506004361061009e5760003560e01c80639d76ea58116100665780639d76ea5814610147578063b3af59d414610165578063c45a015514610183578063eac989f8146101a1578063f3290d75146101bf5761009e565b806339204117146100a357806341566585146100bf57806382971a84146100db5780638da5cb5b146100f95780639b19251a14610117575b600080fd5b6100bd60048036038101906100b89190610a35565b6101db565b005b6100d960048036038101906100d49190610a35565b6104d2565b005b6100e36106bf565b6040516100f09190610d60565b60405180910390f35b6101016106c5565b60405161010e9190610be8565b60405180910390f35b610131600480360381019061012c9190610a35565b6106e9565b60405161013e9190610c63565b60405180910390f35b61014f610709565b60405161015c9190610be8565b60405180910390f35b61016d61072f565b60405161017a9190610be8565b60405180910390f35b61018b610755565b6040516101989190610be8565b60405180910390f35b6101a961077b565b6040516101b69190610c7e565b60405180910390f35b6101d960048036038101906101d49190610a35565b610809565b005b600260009054906101000a900473ffffffffffffffffffffffffffffffffffffffff1673ffffffffffffffffffffffffffffffffffffffff163373ffffffffffffffffffffffffffffffffffffffff161461023557600080fd5b60011515600660008373ffffffffffffffffffffffffffffffffffffffff1673ffffffffffffffffffffffffffffffffffffffff16815260200190815260200160002060009054906101000a900460ff161515146102c8576040517f08c379a00000000000000000000000000000000000000000000000000000000081526004016102bf90610ce0565b60405180910390fd5b6000600560009054906101000a900473ffffffffffffffffffffffffffffffffffffffff1690506004548173ffffffffffffffffffffffffffffffffffffffff166370a08231306040518263ffffffff1660e01b815260040161032b9190610be8565b60206040518083038186803b15801561034357600080fd5b505afa158015610357573d6000803e3d6000fd5b505050506040513d601f19601f8201168201806040525081019061037b9190610a87565b10156103bc576040517f08c379a00000000000000000000000000000000000000000000000000000000081526004016103b390610ca0565b60405180910390fd5b600115158173ffffffffffffffffffffffffffffffffffffffff166323b872dd30856004546040518463ffffffff1660e01b81526004016103ff93929190610c03565b602060405180830381600087803b15801561041957600080fd5b505af115801561042d573d6000803e3d6000fd5b505050506040513d601f19601f820116820180604052508101906104519190610a5e565b151514610493576040517f08c379a000000000000000000000000000000000000000000000000000000000815260040161048a90610d20565b60405180910390fd5b7ff7e8b307dd9151a22531391287117d703ae3480e5d287e15410155081dbb7115826004546040516104c6929190610c3a565b60405180910390a15050565b60008054906101000a900473ffffffffffffffffffffffffffffffffffffffff1673ffffffffffffffffffffffffffffffffffffffff163373ffffffffffffffffffffffffffffffffffffffff161461052a57600080fd5b600073ffffffffffffffffffffffffffffffffffffffff168173ffffffffffffffffffffffffffffffffffffffff16141561059a576040517f08c379a000000000000000000000000000000000000000000000000000000000815260040161059190610cc0565b60405180910390fd5b60001515600660008373ffffffffffffffffffffffffffffffffffffffff1673ffffffffffffffffffffffffffffffffffffffff16815260200190815260200160002060009054906101000a900460ff1615151461062d576040517f08c379a000000000000000000000000000000000000000000000000000000000815260040161062490610d00565b60405180910390fd5b6001600660008373ffffffffffffffffffffffffffffffffffffffff1673ffffffffffffffffffffffffffffffffffffffff16815260200190815260200160002060006101000a81548160ff0219169083151502179055507faab7954e9d246b167ef88aeddad35209ca2489d95a8aeb59e288d9b19fae5a54816040516106b49190610be8565b60405180910390a150565b60045481565b60008054906101000a900473ffffffffffffffffffffffffffffffffffffffff1681565b60066020528060005260406000206000915054906101000a900460ff1681565b600560009054906101000a900473ffffffffffffffffffffffffffffffffffffffff1681565b600260009054906101000a900473ffffffffffffffffffffffffffffffffffffffff1681565b600160009054906101000a900473ffffffffffffffffffffffffffffffffffffffff1681565b6003805461078890610e12565b80601f01602080910402602001604051908101604052809291908181526020018280546107b490610e12565b80156108015780601f106107d657610100808354040283529160200191610801565b820191906000526020600020905b8154815290600101906020018083116107e457829003601f168201915b505050505081565b60008054906101000a900473ffffffffffffffffffffffffffffffffffffffff1673ffffffffffffffffffffffffffffffffffffffff163373ffffffffffffffffffffffffffffffffffffffff161461086157600080fd5b600073ffffffffffffffffffffffffffffffffffffffff168173ffffffffffffffffffffffffffffffffffffffff1614156108d1576040517f08c379a00000000000000000000000000000000000000000000000000000000081526004016108c890610cc0565b60405180910390fd5b60011515600660008373ffffffffffffffffffffffffffffffffffffffff1673ffffffffffffffffffffffffffffffffffffffff16815260200190815260200160002060009054906101000a900460ff16151514610964576040517f08c379a000000000000000000000000000000000000000000000000000000000815260040161095b90610d40565b60405180910390fd5b6000600660008373ffffffffffffffffffffffffffffffffffffffff1673ffffffffffffffffffffffffffffffffffffffff16815260200190815260200160002060006101000a81548160ff0219169083151502179055507fffa4e6181777692565cf28528fc88fd1516ea86b56da075235fa575af6a4b855816040516109eb9190610be8565b60405180910390a150565b600081359050610a0581610fa0565b92915050565b600081519050610a1a81610fb7565b92915050565b600081519050610a2f81610fce565b92915050565b600060208284031215610a4757600080fd5b6000610a55848285016109f6565b91505092915050565b600060208284031215610a7057600080fd5b6000610a7e84828501610a0b565b91505092915050565b600060208284031215610a9957600080fd5b6000610aa784828501610a20565b91505092915050565b610ab981610d97565b82525050565b610ac881610da9565b82525050565b6000610ad982610d7b565b610ae38185610d86565b9350610af3818560208601610ddf565b610afc81610e73565b840191505092915050565b6000610b14601a83610d86565b9150610b1f82610e84565b602082019050919050565b6000610b37600983610d86565b9150610b4282610ead565b602082019050919050565b6000610b5a601f83610d86565b9150610b6582610ed6565b602082019050919050565b6000610b7d601b83610d86565b9150610b8882610eff565b602082019050919050565b6000610ba0602483610d86565b9150610bab82610f28565b604082019050919050565b6000610bc3601b83610d86565b9150610bce82610f77565b602082019050919050565b610be281610dd5565b82525050565b6000602082019050610bfd6000830184610ab0565b92915050565b6000606082019050610c186000830186610ab0565b610c256020830185610ab0565b610c326040830184610bd9565b949350505050565b6000604082019050610c4f6000830185610ab0565b610c5c6020830184610bd9565b9392505050565b6000602082019050610c786000830184610abf565b92915050565b60006020820190508181036000830152610c988184610ace565b905092915050565b60006020820190508181036000830152610cb981610b07565b9050919050565b60006020820190508181036000830152610cd981610b2a565b9050919050565b60006020820190508181036000830152610cf981610b4d565b9050919050565b60006020820190508181036000830152610d1981610b70565b9050919050565b60006020820190508181036000830152610d3981610b93565b9050919050565b60006020820190508181036000830152610d5981610bb6565b9050919050565b6000602082019050610d756000830184610bd9565b92915050565b600081519050919050565b600082825260208201905092915050565b6000610da282610db5565b9050919050565b60008115159050919050565b600073ffffffffffffffffffffffffffffffffffffffff82169050919050565b6000819050919050565b60005b83811015610dfd578082015181840152602081019050610de2565b83811115610e0c576000848401525b50505050565b60006002820490506001821680610e2a57607f821691505b60208210811415610e3e57610e3d610e44565b5b50919050565b7f4e487b7100000000000000000000000000000000000000000000000000000000600052602260045260246000fd5b6000601f19601f8301169050919050565b7f496e73756666696369656e742065726332302062616c616e6365000000000000600082015250565b7f4164647265737320300000000000000000000000000000000000000000000000600082015250565b7f576562736974652061646472657373206e6f742077686974656c697374656400600082015250565b7f4164647265737320616c72656164792077686974656c69737465640000000000600082015250565b7f436f756c64206e6f742073656e6420746f6b656e7320746f207468652077656260008201527f7369746500000000000000000000000000000000000000000000000000000000602082015250565b7f4164647265737320616c726561647920626c61636b6c69737465640000000000600082015250565b610fa981610d97565b8114610fb457600080fd5b50565b610fc081610da9565b8114610fcb57600080fd5b50565b610fd781610dd5565b8114610fe257600080fd5b5056fea264697066735822122011778b0b51c33c06b6bcfe0e21951cc1d2d7a33201c60d6e3937aaa6eb96749364736f6c63430008040033a264697066735822122091112113e84565ebe55dc88f39d9c3128229ff8f2b6da23c125ee2f8e5e0730664736f6c63430008040033",
  "immutableReferences": {},
  "source": "// SPDX-License-Identifier: MIT\npragma solidity ^0.8.4;\n\nimport \"./Ownable.sol\";\nimport \"./ReentrancyGuard.sol\";\nimport \"./Pausable.sol\";\nimport \"./Dai.sol\";\nimport \"./AdEthNFT.sol\";\n\ncontract AdEthFactory is Ownable, ReentrancyGuard, Pausable {\n  address public erc20Address;\n  uint public idCounter;\n  uint public fee;\n\n  mapping(uint => address) public AdEthNFTs;\n\n  event ReceivedEther(address indexed sender, uint indexed amount);\n  event FactoryProduction(address indexed customer, address indexed AdEthNFT, uint indexed budget);\n  event NewFeeSet(uint indexed _newFee);\n  \n  constructor(address _erc20Address, uint _fee) {\n    erc20Address = _erc20Address;\n    fee = _fee;\n    idCounter = 0;\n  }\n\n  receive() external payable whenNotPaused {\n    emit ReceivedEther(msg.sender, msg.value);\n  }\n  \n  fallback() external payable {\n    revert();\n  }\n\n  function lockContract() public onlyOwner {\n    _pause();\n  }\n\n  function unlockContract() public onlyOwner {\n    _unpause();\n  }\n\n  function setFee(uint _newFee) public onlyOwner {\n    fee = _newFee;\n    emit NewFeeSet(_newFee);\n  }\n\n  function deposit(uint budget) public {\n\n  }\n\n  function createAdEthNFT(uint256 budget, address _newAdCaller, string memory _newUri, uint256 _newCpc) public {\n    Dai tokenContract = Dai(erc20Address);\n    require(tokenContract.balanceOf(msg.sender) >= budget, \"Insufficient erc20 balance\");\n    require(tokenContract.allowance(msg.sender, address(this)) >= budget, \"Insufficient erc20 allowance\");\n    require(tokenContract.transferFrom(msg.sender, address(this), budget) == true, \"Could not get tokens from customer\");\n\n    AdEthNFT newAdEthNFT = new AdEthNFT(msg.sender, _newAdCaller, _newUri, _newCpc, erc20Address);\n    idCounter += 1;\n    AdEthNFTs[idCounter] = address(newAdEthNFT);\n    uint budgetMinusFee = budget - (budget * fee / 100);\n    require(tokenContract.transferFrom(address(this), address(newAdEthNFT), budgetMinusFee));\n\n    emit FactoryProduction(msg.sender, address(newAdEthNFT), budget);\n  }\n}",
  "sourcePath": "C:/Users/rapha/Documents/IT/AdETH/contracts/AdEthFactory.sol",
  "compiler": {
    "name": "solc",
    "version": "0.8.4+commit.c7e474f2.Emscripten.clang"
  },
  "schemaVersion": "3.4.0",
  "updatedAt": "2021-05-29T10:52:09.875Z",
  "networkType": "ethereum",
  "devdoc": {
    "kind": "dev",
    "methods": {
      "owner()": {
        "details": "Returns the address of the current owner."
      },
      "paused()": {
        "details": "Returns true if the contract is paused, and false otherwise."
      },
      "renounceOwnership()": {
        "details": "Leaves the contract without owner. It will not be possible to call `onlyOwner` functions anymore. Can only be called by the current owner. NOTE: Renouncing ownership will leave the contract without an owner, thereby removing any functionality that is only available to the owner."
      },
      "transferOwnership(address)": {
        "details": "Transfers ownership of the contract to a new account (`newOwner`). Can only be called by the current owner."
      }
    },
    "version": 1
  },
  "userdoc": {
    "kind": "user",
    "methods": {},
    "version": 1
  }
}