{
  "contractName": "AdEthNFT",
  "abi": [
    {
      "inputs": [
        {
          "internalType": "address",
          "name": "_newOwner",
          "type": "address"
        },
        {
          "internalType": "address",
          "name": "_newAdCaller",
          "type": "address"
        },
        {
          "internalType": "string",
          "name": "_newUri",
          "type": "string"
        },
        {
          "internalType": "uint256",
          "name": "_newCpc",
          "type": "uint256"
        },
        {
          "internalType": "address",
          "name": "_tokenAddress",
          "type": "address"
        }
      ],
      "stateMutability": "nonpayable",
      "type": "constructor"
    },
    {
      "anonymous": false,
      "inputs": [
        {
          "indexed": false,
          "internalType": "address",
          "name": "newAddress",
          "type": "address"
        }
      ],
      "name": "Blacklisted",
      "type": "event"
    },
    {
      "anonymous": false,
      "inputs": [
        {
          "indexed": false,
          "internalType": "address",
          "name": "websiteAddress",
          "type": "address"
        },
        {
          "indexed": false,
          "internalType": "uint256",
          "name": "cpc",
          "type": "uint256"
        }
      ],
      "name": "Clicked",
      "type": "event"
    },
    {
      "anonymous": false,
      "inputs": [
        {
          "indexed": false,
          "internalType": "address",
          "name": "newAddress",
          "type": "address"
        }
      ],
      "name": "Whitelisted",
      "type": "event"
    },
    {
      "inputs": [],
      "name": "adCaller",
      "outputs": [
        {
          "internalType": "address",
          "name": "",
          "type": "address"
        }
      ],
      "stateMutability": "view",
      "type": "function",
      "constant": true
    },
    {
      "inputs": [],
      "name": "cpc",
      "outputs": [
        {
          "internalType": "uint256",
          "name": "",
          "type": "uint256"
        }
      ],
      "stateMutability": "view",
      "type": "function",
      "constant": true
    },
    {
      "inputs": [],
      "name": "factory",
      "outputs": [
        {
          "internalType": "address",
          "name": "",
          "type": "address"
        }
      ],
      "stateMutability": "view",
      "type": "function",
      "constant": true
    },
    {
      "inputs": [],
      "name": "owner",
      "outputs": [
        {
          "internalType": "address",
          "name": "",
          "type": "address"
        }
      ],
      "stateMutability": "view",
      "type": "function",
      "constant": true
    },
    {
      "inputs": [],
      "name": "tokenAddress",
      "outputs": [
        {
          "internalType": "address",
          "name": "",
          "type": "address"
        }
      ],
      "stateMutability": "view",
      "type": "function",
      "constant": true
    },
    {
      "inputs": [],
      "name": "uri",
      "outputs": [
        {
          "internalType": "string",
          "name": "",
          "type": "string"
        }
      ],
      "stateMutability": "view",
      "type": "function",
      "constant": true
    },
    {
      "inputs": [
        {
          "internalType": "address",
          "name": "",
          "type": "address"
        }
      ],
      "name": "whitelist",
      "outputs": [
        {
          "internalType": "bool",
          "name": "",
          "type": "bool"
        }
      ],
      "stateMutability": "view",
      "type": "function",
      "constant": true
    },
    {
      "inputs": [
        {
          "internalType": "address",
          "name": "_newAddress",
          "type": "address"
        }
      ],
      "name": "whitelistAddress",
      "outputs": [],
      "stateMutability": "nonpayable",
      "type": "function"
    },
    {
      "inputs": [
        {
          "internalType": "address",
          "name": "_newAddress",
          "type": "address"
        }
      ],
      "name": "blacklistAddress",
      "outputs": [],
      "stateMutability": "nonpayable",
      "type": "function"
    },
    {
      "inputs": [
        {
          "internalType": "address",
          "name": "websiteAddress",
          "type": "address"
        }
      ],
      "name": "beenClicked",
      "outputs": [],
      "stateMutability": "nonpayable",
      "type": "function"
    }
  ],
  "bytecode": "0x60806040523480156200001157600080fd5b506040516200155d3803806200155d8339818101604052810190620000379190620002b5565b33600160006101000a81548173ffffffffffffffffffffffffffffffffffffffff021916908373ffffffffffffffffffffffffffffffffffffffff160217905550846000806101000a81548173ffffffffffffffffffffffffffffffffffffffff021916908373ffffffffffffffffffffffffffffffffffffffff16021790555083600260006101000a81548173ffffffffffffffffffffffffffffffffffffffff021916908373ffffffffffffffffffffffffffffffffffffffff16021790555082600390805190602001906200011192919062000165565b508160048190555080600560006101000a81548173ffffffffffffffffffffffffffffffffffffffff021916908373ffffffffffffffffffffffffffffffffffffffff160217905550505050505062000532565b828054620001739062000423565b90600052602060002090601f016020900481019282620001975760008555620001e3565b82601f10620001b257805160ff1916838001178555620001e3565b82800160010185558215620001e3579182015b82811115620001e2578251825591602001919060010190620001c5565b5b509050620001f29190620001f6565b5090565b5b8082111562000211576000816000905550600101620001f7565b5090565b60006200022c620002268462000379565b62000350565b9050828152602081018484840111156200024557600080fd5b62000252848285620003ed565b509392505050565b6000815190506200026b81620004fe565b92915050565b600082601f8301126200028357600080fd5b81516200029584826020860162000215565b91505092915050565b600081519050620002af8162000518565b92915050565b600080600080600060a08688031215620002ce57600080fd5b6000620002de888289016200025a565b9550506020620002f1888289016200025a565b945050604086015167ffffffffffffffff8111156200030f57600080fd5b6200031d8882890162000271565b935050606062000330888289016200029e565b925050608062000343888289016200025a565b9150509295509295909350565b60006200035c6200036f565b90506200036a828262000459565b919050565b6000604051905090565b600067ffffffffffffffff821115620003975762000396620004be565b5b620003a282620004ed565b9050602081019050919050565b6000620003bc82620003c3565b9050919050565b600073ffffffffffffffffffffffffffffffffffffffff82169050919050565b6000819050919050565b60005b838110156200040d578082015181840152602081019050620003f0565b838111156200041d576000848401525b50505050565b600060028204905060018216806200043c57607f821691505b602082108114156200045357620004526200048f565b5b50919050565b6200046482620004ed565b810181811067ffffffffffffffff82111715620004865762000485620004be565b5b80604052505050565b7f4e487b7100000000000000000000000000000000000000000000000000000000600052602260045260246000fd5b7f4e487b7100000000000000000000000000000000000000000000000000000000600052604160045260246000fd5b6000601f19601f8301169050919050565b6200050981620003af565b81146200051557600080fd5b50565b6200052381620003e3565b81146200052f57600080fd5b50565b61101b80620005426000396000f3fe608060405234801561001057600080fd5b506004361061009e5760003560e01c80639d76ea58116100665780639d76ea5814610147578063b3af59d414610165578063c45a015514610183578063eac989f8146101a1578063f3290d75146101bf5761009e565b806339204117146100a357806341566585146100bf57806382971a84146100db5780638da5cb5b146100f95780639b19251a14610117575b600080fd5b6100bd60048036038101906100b89190610a35565b6101db565b005b6100d960048036038101906100d49190610a35565b6104d2565b005b6100e36106bf565b6040516100f09190610d60565b60405180910390f35b6101016106c5565b60405161010e9190610be8565b60405180910390f35b610131600480360381019061012c9190610a35565b6106e9565b60405161013e9190610c63565b60405180910390f35b61014f610709565b60405161015c9190610be8565b60405180910390f35b61016d61072f565b60405161017a9190610be8565b60405180910390f35b61018b610755565b6040516101989190610be8565b60405180910390f35b6101a961077b565b6040516101b69190610c7e565b60405180910390f35b6101d960048036038101906101d49190610a35565b610809565b005b600260009054906101000a900473ffffffffffffffffffffffffffffffffffffffff1673ffffffffffffffffffffffffffffffffffffffff163373ffffffffffffffffffffffffffffffffffffffff161461023557600080fd5b60011515600660008373ffffffffffffffffffffffffffffffffffffffff1673ffffffffffffffffffffffffffffffffffffffff16815260200190815260200160002060009054906101000a900460ff161515146102c8576040517f08c379a00000000000000000000000000000000000000000000000000000000081526004016102bf90610ce0565b60405180910390fd5b6000600560009054906101000a900473ffffffffffffffffffffffffffffffffffffffff1690506004548173ffffffffffffffffffffffffffffffffffffffff166370a08231306040518263ffffffff1660e01b815260040161032b9190610be8565b60206040518083038186803b15801561034357600080fd5b505afa158015610357573d6000803e3d6000fd5b505050506040513d601f19601f8201168201806040525081019061037b9190610a87565b10156103bc576040517f08c379a00000000000000000000000000000000000000000000000000000000081526004016103b390610ca0565b60405180910390fd5b600115158173ffffffffffffffffffffffffffffffffffffffff166323b872dd30856004546040518463ffffffff1660e01b81526004016103ff93929190610c03565b602060405180830381600087803b15801561041957600080fd5b505af115801561042d573d6000803e3d6000fd5b505050506040513d601f19601f820116820180604052508101906104519190610a5e565b151514610493576040517f08c379a000000000000000000000000000000000000000000000000000000000815260040161048a90610d20565b60405180910390fd5b7ff7e8b307dd9151a22531391287117d703ae3480e5d287e15410155081dbb7115826004546040516104c6929190610c3a565b60405180910390a15050565b60008054906101000a900473ffffffffffffffffffffffffffffffffffffffff1673ffffffffffffffffffffffffffffffffffffffff163373ffffffffffffffffffffffffffffffffffffffff161461052a57600080fd5b600073ffffffffffffffffffffffffffffffffffffffff168173ffffffffffffffffffffffffffffffffffffffff16141561059a576040517f08c379a000000000000000000000000000000000000000000000000000000000815260040161059190610cc0565b60405180910390fd5b60001515600660008373ffffffffffffffffffffffffffffffffffffffff1673ffffffffffffffffffffffffffffffffffffffff16815260200190815260200160002060009054906101000a900460ff1615151461062d576040517f08c379a000000000000000000000000000000000000000000000000000000000815260040161062490610d00565b60405180910390fd5b6001600660008373ffffffffffffffffffffffffffffffffffffffff1673ffffffffffffffffffffffffffffffffffffffff16815260200190815260200160002060006101000a81548160ff0219169083151502179055507faab7954e9d246b167ef88aeddad35209ca2489d95a8aeb59e288d9b19fae5a54816040516106b49190610be8565b60405180910390a150565b60045481565b60008054906101000a900473ffffffffffffffffffffffffffffffffffffffff1681565b60066020528060005260406000206000915054906101000a900460ff1681565b600560009054906101000a900473ffffffffffffffffffffffffffffffffffffffff1681565b600260009054906101000a900473ffffffffffffffffffffffffffffffffffffffff1681565b600160009054906101000a900473ffffffffffffffffffffffffffffffffffffffff1681565b6003805461078890610e12565b80601f01602080910402602001604051908101604052809291908181526020018280546107b490610e12565b80156108015780601f106107d657610100808354040283529160200191610801565b820191906000526020600020905b8154815290600101906020018083116107e457829003601f168201915b505050505081565b60008054906101000a900473ffffffffffffffffffffffffffffffffffffffff1673ffffffffffffffffffffffffffffffffffffffff163373ffffffffffffffffffffffffffffffffffffffff161461086157600080fd5b600073ffffffffffffffffffffffffffffffffffffffff168173ffffffffffffffffffffffffffffffffffffffff1614156108d1576040517f08c379a00000000000000000000000000000000000000000000000000000000081526004016108c890610cc0565b60405180910390fd5b60011515600660008373ffffffffffffffffffffffffffffffffffffffff1673ffffffffffffffffffffffffffffffffffffffff16815260200190815260200160002060009054906101000a900460ff16151514610964576040517f08c379a000000000000000000000000000000000000000000000000000000000815260040161095b90610d40565b60405180910390fd5b6000600660008373ffffffffffffffffffffffffffffffffffffffff1673ffffffffffffffffffffffffffffffffffffffff16815260200190815260200160002060006101000a81548160ff0219169083151502179055507fffa4e6181777692565cf28528fc88fd1516ea86b56da075235fa575af6a4b855816040516109eb9190610be8565b60405180910390a150565b600081359050610a0581610fa0565b92915050565b600081519050610a1a81610fb7565b92915050565b600081519050610a2f81610fce565b92915050565b600060208284031215610a4757600080fd5b6000610a55848285016109f6565b91505092915050565b600060208284031215610a7057600080fd5b6000610a7e84828501610a0b565b91505092915050565b600060208284031215610a9957600080fd5b6000610aa784828501610a20565b91505092915050565b610ab981610d97565b82525050565b610ac881610da9565b82525050565b6000610ad982610d7b565b610ae38185610d86565b9350610af3818560208601610ddf565b610afc81610e73565b840191505092915050565b6000610b14601a83610d86565b9150610b1f82610e84565b602082019050919050565b6000610b37600983610d86565b9150610b4282610ead565b602082019050919050565b6000610b5a601f83610d86565b9150610b6582610ed6565b602082019050919050565b6000610b7d601b83610d86565b9150610b8882610eff565b602082019050919050565b6000610ba0602483610d86565b9150610bab82610f28565b604082019050919050565b6000610bc3601b83610d86565b9150610bce82610f77565b602082019050919050565b610be281610dd5565b82525050565b6000602082019050610bfd6000830184610ab0565b92915050565b6000606082019050610c186000830186610ab0565b610c256020830185610ab0565b610c326040830184610bd9565b949350505050565b6000604082019050610c4f6000830185610ab0565b610c5c6020830184610bd9565b9392505050565b6000602082019050610c786000830184610abf565b92915050565b60006020820190508181036000830152610c988184610ace565b905092915050565b60006020820190508181036000830152610cb981610b07565b9050919050565b60006020820190508181036000830152610cd981610b2a565b9050919050565b60006020820190508181036000830152610cf981610b4d565b9050919050565b60006020820190508181036000830152610d1981610b70565b9050919050565b60006020820190508181036000830152610d3981610b93565b9050919050565b60006020820190508181036000830152610d5981610bb6565b9050919050565b6000602082019050610d756000830184610bd9565b92915050565b600081519050919050565b600082825260208201905092915050565b6000610da282610db5565b9050919050565b60008115159050919050565b600073ffffffffffffffffffffffffffffffffffffffff82169050919050565b6000819050919050565b60005b83811015610dfd578082015181840152602081019050610de2565b83811115610e0c576000848401525b50505050565b60006002820490506001821680610e2a57607f821691505b60208210811415610e3e57610e3d610e44565b5b50919050565b7f4e487b7100000000000000000000000000000000000000000000000000000000600052602260045260246000fd5b6000601f19601f8301169050919050565b7f496e73756666696369656e742065726332302062616c616e6365000000000000600082015250565b7f4164647265737320300000000000000000000000000000000000000000000000600082015250565b7f576562736974652061646472657373206e6f742077686974656c697374656400600082015250565b7f4164647265737320616c72656164792077686974656c69737465640000000000600082015250565b7f436f756c64206e6f742073656e6420746f6b656e7320746f207468652077656260008201527f7369746500000000000000000000000000000000000000000000000000000000602082015250565b7f4164647265737320616c726561647920626c61636b6c69737465640000000000600082015250565b610fa981610d97565b8114610fb457600080fd5b50565b610fc081610da9565b8114610fcb57600080fd5b50565b610fd781610dd5565b8114610fe257600080fd5b5056fea264697066735822122011778b0b51c33c06b6bcfe0e21951cc1d2d7a33201c60d6e3937aaa6eb96749364736f6c63430008040033",
  "immutableReferences": {},
  "source": "// SPDX-License-Identifier: MIT\npragma solidity ^0.8.4;\n\nimport \"./Dai.sol\";\n\ncontract AdEthNFT {\n  address public owner;\n  address public factory;\n  address public adCaller;\n  string public uri;\n  uint256 public cpc;\n  address public tokenAddress;\n  \n  mapping(address => bool) public whitelist;\n  \n  event Whitelisted(address newAddress);\n  event Blacklisted(address newAddress);\n  event Clicked(address websiteAddress, uint256 cpc);\n\n  constructor(address _newOwner, address _newAdCaller, string memory _newUri, uint256 _newCpc, address _tokenAddress) {\n    factory = msg.sender;\n    owner = _newOwner;\n    adCaller = _newAdCaller;\n    uri = _newUri;\n    cpc = _newCpc;\n    tokenAddress = _tokenAddress;\n  }\n\n  modifier onlyOwner {\n    require(msg.sender == owner);\n    _;\n  }\n\n  modifier onlyAdCaller {\n    require(msg.sender == adCaller);\n    _;\n  }\n\n  function whitelistAddress(address _newAddress) public onlyOwner {\n    require(_newAddress != address(0), \"Address 0\");\n    require(whitelist[_newAddress] == false, \"Address already whitelisted\");\n    \n    whitelist[_newAddress] = true;\n    \n    emit Whitelisted(_newAddress);\n  }\n\n  function blacklistAddress(address _newAddress) public onlyOwner {\n    require(_newAddress != address(0), \"Address 0\");\n    require(whitelist[_newAddress] == true, \"Address already blacklisted\");\n    \n    whitelist[_newAddress] = false;\n    \n    emit Blacklisted(_newAddress);\n  }\n\n  function beenClicked(address websiteAddress) public onlyAdCaller {\n    require(whitelist[websiteAddress] == true, \"Website address not whitelisted\");\n\n    Dai tokenContract = Dai(tokenAddress);\n    require(tokenContract.balanceOf(address(this)) >= cpc, \"Insufficient erc20 balance\");\n    require(tokenContract.transferFrom(address(this), websiteAddress, cpc) == true, \"Could not send tokens to the website\");\n    emit Clicked(websiteAddress, cpc);\n  }\n\n  //function callerBalance()\n}",
  "sourcePath": "C:/Users/rapha/Documents/IT/AdETH/contracts/AdEthNFT.sol",
  "compiler": {
    "name": "solc",
    "version": "0.8.4+commit.c7e474f2.Emscripten.clang"
  },
  "schemaVersion": "3.4.0",
  "updatedAt": "2021-05-30T11:24:16.892Z",
  "networkType": "ethereum",
  "devdoc": {
    "kind": "dev",
    "methods": {},
    "version": 1
  },
  "userdoc": {
    "kind": "user",
    "methods": {},
    "version": 1
  }
}