{
  "contractName": "AdEthNFT",
  "abi": [
    {
      "inputs": [
        {
          "internalType": "address",
          "name": "_newOwner",
          "type": "address"
        },
        {
          "internalType": "address",
          "name": "_newAdCaller",
          "type": "address"
        },
        {
          "internalType": "string",
          "name": "_newUri",
          "type": "string"
        },
        {
          "internalType": "uint8",
          "name": "_newCpc",
          "type": "uint8"
        },
        {
          "internalType": "address",
          "name": "_tokenAddress",
          "type": "address"
        }
      ],
      "stateMutability": "nonpayable",
      "type": "constructor"
    },
    {
      "anonymous": false,
      "inputs": [
        {
          "indexed": false,
          "internalType": "address",
          "name": "newAddress",
          "type": "address"
        }
      ],
      "name": "Blacklisted",
      "type": "event"
    },
    {
      "anonymous": false,
      "inputs": [
        {
          "indexed": false,
          "internalType": "address",
          "name": "websiteAddress",
          "type": "address"
        },
        {
          "indexed": false,
          "internalType": "uint8",
          "name": "cpc",
          "type": "uint8"
        }
      ],
      "name": "Clicked",
      "type": "event"
    },
    {
      "anonymous": false,
      "inputs": [
        {
          "indexed": false,
          "internalType": "address",
          "name": "newAddress",
          "type": "address"
        }
      ],
      "name": "Whitelisted",
      "type": "event"
    },
    {
      "inputs": [],
      "name": "adCaller",
      "outputs": [
        {
          "internalType": "address",
          "name": "",
          "type": "address"
        }
      ],
      "stateMutability": "view",
      "type": "function",
      "constant": true
    },
    {
      "inputs": [],
      "name": "cpc",
      "outputs": [
        {
          "internalType": "uint8",
          "name": "",
          "type": "uint8"
        }
      ],
      "stateMutability": "view",
      "type": "function",
      "constant": true
    },
    {
      "inputs": [],
      "name": "factory",
      "outputs": [
        {
          "internalType": "address",
          "name": "",
          "type": "address"
        }
      ],
      "stateMutability": "view",
      "type": "function",
      "constant": true
    },
    {
      "inputs": [],
      "name": "owner",
      "outputs": [
        {
          "internalType": "address",
          "name": "",
          "type": "address"
        }
      ],
      "stateMutability": "view",
      "type": "function",
      "constant": true
    },
    {
      "inputs": [],
      "name": "tokenAddress",
      "outputs": [
        {
          "internalType": "address",
          "name": "",
          "type": "address"
        }
      ],
      "stateMutability": "view",
      "type": "function",
      "constant": true
    },
    {
      "inputs": [],
      "name": "uri",
      "outputs": [
        {
          "internalType": "string",
          "name": "",
          "type": "string"
        }
      ],
      "stateMutability": "view",
      "type": "function",
      "constant": true
    },
    {
      "inputs": [
        {
          "internalType": "address",
          "name": "",
          "type": "address"
        }
      ],
      "name": "whitelist",
      "outputs": [
        {
          "internalType": "bool",
          "name": "",
          "type": "bool"
        }
      ],
      "stateMutability": "view",
      "type": "function",
      "constant": true
    },
    {
      "inputs": [
        {
          "internalType": "address",
          "name": "_newAddress",
          "type": "address"
        }
      ],
      "name": "whitelistAddress",
      "outputs": [],
      "stateMutability": "nonpayable",
      "type": "function"
    },
    {
      "inputs": [
        {
          "internalType": "address",
          "name": "_newAddress",
          "type": "address"
        }
      ],
      "name": "blacklistAddress",
      "outputs": [],
      "stateMutability": "nonpayable",
      "type": "function"
    },
    {
      "inputs": [
        {
          "internalType": "address",
          "name": "websiteAddress",
          "type": "address"
        }
      ],
      "name": "beenClicked",
      "outputs": [],
      "stateMutability": "nonpayable",
      "type": "function"
    }
  ],
  "bytecode": "0x60806040523480156200001157600080fd5b50604051620015d9380380620015d98339818101604052810190620000379190620002c9565b33600160006101000a81548173ffffffffffffffffffffffffffffffffffffffff021916908373ffffffffffffffffffffffffffffffffffffffff160217905550846000806101000a81548173ffffffffffffffffffffffffffffffffffffffff021916908373ffffffffffffffffffffffffffffffffffffffff16021790555083600260006101000a81548173ffffffffffffffffffffffffffffffffffffffff021916908373ffffffffffffffffffffffffffffffffffffffff16021790555082600390805190602001906200011192919062000179565b5081600460006101000a81548160ff021916908360ff16021790555080600460016101000a81548173ffffffffffffffffffffffffffffffffffffffff021916908373ffffffffffffffffffffffffffffffffffffffff160217905550505050505062000549565b82805462000187906200043a565b90600052602060002090601f016020900481019282620001ab5760008555620001f7565b82601f10620001c657805160ff1916838001178555620001f7565b82800160010185558215620001f7579182015b82811115620001f6578251825591602001919060010190620001d9565b5b5090506200020691906200020a565b5090565b5b80821115620002255760008160009055506001016200020b565b5090565b6000620002406200023a846200038d565b62000364565b9050828152602081018484840111156200025957600080fd5b6200026684828562000404565b509392505050565b6000815190506200027f8162000515565b92915050565b600082601f8301126200029757600080fd5b8151620002a984826020860162000229565b91505092915050565b600081519050620002c3816200052f565b92915050565b600080600080600060a08688031215620002e257600080fd5b6000620002f2888289016200026e565b955050602062000305888289016200026e565b945050604086015167ffffffffffffffff8111156200032357600080fd5b620003318882890162000285565b93505060606200034488828901620002b2565b925050608062000357888289016200026e565b9150509295509295909350565b60006200037062000383565b90506200037e828262000470565b919050565b6000604051905090565b600067ffffffffffffffff821115620003ab57620003aa620004d5565b5b620003b68262000504565b9050602081019050919050565b6000620003d082620003d7565b9050919050565b600073ffffffffffffffffffffffffffffffffffffffff82169050919050565b600060ff82169050919050565b60005b838110156200042457808201518184015260208101905062000407565b8381111562000434576000848401525b50505050565b600060028204905060018216806200045357607f821691505b602082108114156200046a5762000469620004a6565b5b50919050565b6200047b8262000504565b810181811067ffffffffffffffff821117156200049d576200049c620004d5565b5b80604052505050565b7f4e487b7100000000000000000000000000000000000000000000000000000000600052602260045260246000fd5b7f4e487b7100000000000000000000000000000000000000000000000000000000600052604160045260246000fd5b6000601f19601f8301169050919050565b6200052081620003c3565b81146200052c57600080fd5b50565b6200053a81620003f7565b81146200054657600080fd5b50565b61108080620005596000396000f3fe608060405234801561001057600080fd5b506004361061009e5760003560e01c80639d76ea58116100665780639d76ea5814610147578063b3af59d414610165578063c45a015514610183578063eac989f8146101a1578063f3290d75146101bf5761009e565b806339204117146100a357806341566585146100bf57806382971a84146100db5780638da5cb5b146100f95780639b19251a14610117575b600080fd5b6100bd60048036038101906100b89190610a6c565b6101db565b005b6100d960048036038101906100d49190610a6c565b6104fc565b005b6100e36106e9565b6040516100f09190610da6565b60405180910390f35b6101016106fc565b60405161010e9190610c2e565b60405180910390f35b610131600480360381019061012c9190610a6c565b610720565b60405161013e9190610ca9565b60405180910390f35b61014f610740565b60405161015c9190610c2e565b60405180910390f35b61016d610766565b60405161017a9190610c2e565b60405180910390f35b61018b61078c565b6040516101989190610c2e565b60405180910390f35b6101a96107b2565b6040516101b69190610cc4565b60405180910390f35b6101d960048036038101906101d49190610a6c565b610840565b005b600260009054906101000a900473ffffffffffffffffffffffffffffffffffffffff1673ffffffffffffffffffffffffffffffffffffffff163373ffffffffffffffffffffffffffffffffffffffff161461023557600080fd5b60011515600560008373ffffffffffffffffffffffffffffffffffffffff1673ffffffffffffffffffffffffffffffffffffffff16815260200190815260200160002060009054906101000a900460ff161515146102c8576040517f08c379a00000000000000000000000000000000000000000000000000000000081526004016102bf90610d26565b60405180910390fd5b6000600460019054906101000a900473ffffffffffffffffffffffffffffffffffffffff169050600460009054906101000a900460ff1660ff168173ffffffffffffffffffffffffffffffffffffffff166370a08231306040518263ffffffff1660e01b815260040161033b9190610c2e565b60206040518083038186803b15801561035357600080fd5b505afa158015610367573d6000803e3d6000fd5b505050506040513d601f19601f8201168201806040525081019061038b9190610abe565b10156103cc576040517f08c379a00000000000000000000000000000000000000000000000000000000081526004016103c390610ce6565b60405180910390fd5b600115158173ffffffffffffffffffffffffffffffffffffffff166323b872dd3085600460009054906101000a900460ff166040518463ffffffff1660e01b815260040161041c93929190610c49565b602060405180830381600087803b15801561043657600080fd5b505af115801561044a573d6000803e3d6000fd5b505050506040513d601f19601f8201168201806040525081019061046e9190610a95565b1515146104b0576040517f08c379a00000000000000000000000000000000000000000000000000000000081526004016104a790610d66565b60405180910390fd5b7fd8275ce467832c4d86f159d64e6d1393a3899736e09fc0e26a6bf0efe2a2e53082600460009054906101000a900460ff166040516104f0929190610c80565b60405180910390a15050565b60008054906101000a900473ffffffffffffffffffffffffffffffffffffffff1673ffffffffffffffffffffffffffffffffffffffff163373ffffffffffffffffffffffffffffffffffffffff161461055457600080fd5b600073ffffffffffffffffffffffffffffffffffffffff168173ffffffffffffffffffffffffffffffffffffffff1614156105c4576040517f08c379a00000000000000000000000000000000000000000000000000000000081526004016105bb90610d06565b60405180910390fd5b60001515600560008373ffffffffffffffffffffffffffffffffffffffff1673ffffffffffffffffffffffffffffffffffffffff16815260200190815260200160002060009054906101000a900460ff16151514610657576040517f08c379a000000000000000000000000000000000000000000000000000000000815260040161064e90610d46565b60405180910390fd5b6001600560008373ffffffffffffffffffffffffffffffffffffffff1673ffffffffffffffffffffffffffffffffffffffff16815260200190815260200160002060006101000a81548160ff0219169083151502179055507faab7954e9d246b167ef88aeddad35209ca2489d95a8aeb59e288d9b19fae5a54816040516106de9190610c2e565b60405180910390a150565b600460009054906101000a900460ff1681565b60008054906101000a900473ffffffffffffffffffffffffffffffffffffffff1681565b60056020528060005260406000206000915054906101000a900460ff1681565b600460019054906101000a900473ffffffffffffffffffffffffffffffffffffffff1681565b600260009054906101000a900473ffffffffffffffffffffffffffffffffffffffff1681565b600160009054906101000a900473ffffffffffffffffffffffffffffffffffffffff1681565b600380546107bf90610e77565b80601f01602080910402602001604051908101604052809291908181526020018280546107eb90610e77565b80156108385780601f1061080d57610100808354040283529160200191610838565b820191906000526020600020905b81548152906001019060200180831161081b57829003601f168201915b505050505081565b60008054906101000a900473ffffffffffffffffffffffffffffffffffffffff1673ffffffffffffffffffffffffffffffffffffffff163373ffffffffffffffffffffffffffffffffffffffff161461089857600080fd5b600073ffffffffffffffffffffffffffffffffffffffff168173ffffffffffffffffffffffffffffffffffffffff161415610908576040517f08c379a00000000000000000000000000000000000000000000000000000000081526004016108ff90610d06565b60405180910390fd5b60011515600560008373ffffffffffffffffffffffffffffffffffffffff1673ffffffffffffffffffffffffffffffffffffffff16815260200190815260200160002060009054906101000a900460ff1615151461099b576040517f08c379a000000000000000000000000000000000000000000000000000000000815260040161099290610d86565b60405180910390fd5b6000600560008373ffffffffffffffffffffffffffffffffffffffff1673ffffffffffffffffffffffffffffffffffffffff16815260200190815260200160002060006101000a81548160ff0219169083151502179055507fffa4e6181777692565cf28528fc88fd1516ea86b56da075235fa575af6a4b85581604051610a229190610c2e565b60405180910390a150565b600081359050610a3c81611005565b92915050565b600081519050610a518161101c565b92915050565b600081519050610a6681611033565b92915050565b600060208284031215610a7e57600080fd5b6000610a8c84828501610a2d565b91505092915050565b600060208284031215610aa757600080fd5b6000610ab584828501610a42565b91505092915050565b600060208284031215610ad057600080fd5b6000610ade84828501610a57565b91505092915050565b610af081610ddd565b82525050565b610aff81610def565b82525050565b6000610b1082610dc1565b610b1a8185610dcc565b9350610b2a818560208601610e44565b610b3381610ed8565b840191505092915050565b6000610b4b601a83610dcc565b9150610b5682610ee9565b602082019050919050565b6000610b6e600983610dcc565b9150610b7982610f12565b602082019050919050565b6000610b91601f83610dcc565b9150610b9c82610f3b565b602082019050919050565b6000610bb4601b83610dcc565b9150610bbf82610f64565b602082019050919050565b6000610bd7602483610dcc565b9150610be282610f8d565b604082019050919050565b6000610bfa601b83610dcc565b9150610c0582610fdc565b602082019050919050565b610c1981610e32565b82525050565b610c2881610e25565b82525050565b6000602082019050610c436000830184610ae7565b92915050565b6000606082019050610c5e6000830186610ae7565b610c6b6020830185610ae7565b610c786040830184610c10565b949350505050565b6000604082019050610c956000830185610ae7565b610ca26020830184610c1f565b9392505050565b6000602082019050610cbe6000830184610af6565b92915050565b60006020820190508181036000830152610cde8184610b05565b905092915050565b60006020820190508181036000830152610cff81610b3e565b9050919050565b60006020820190508181036000830152610d1f81610b61565b9050919050565b60006020820190508181036000830152610d3f81610b84565b9050919050565b60006020820190508181036000830152610d5f81610ba7565b9050919050565b60006020820190508181036000830152610d7f81610bca565b9050919050565b60006020820190508181036000830152610d9f81610bed565b9050919050565b6000602082019050610dbb6000830184610c1f565b92915050565b600081519050919050565b600082825260208201905092915050565b6000610de882610dfb565b9050919050565b60008115159050919050565b600073ffffffffffffffffffffffffffffffffffffffff82169050919050565b6000819050919050565b600060ff82169050919050565b6000610e3d82610e25565b9050919050565b60005b83811015610e62578082015181840152602081019050610e47565b83811115610e71576000848401525b50505050565b60006002820490506001821680610e8f57607f821691505b60208210811415610ea357610ea2610ea9565b5b50919050565b7f4e487b7100000000000000000000000000000000000000000000000000000000600052602260045260246000fd5b6000601f19601f8301169050919050565b7f496e73756666696369656e742065726332302062616c616e6365000000000000600082015250565b7f4164647265737320300000000000000000000000000000000000000000000000600082015250565b7f576562736974652061646472657373206e6f742077686974656c697374656400600082015250565b7f4164647265737320616c72656164792077686974656c69737465640000000000600082015250565b7f436f756c64206e6f742073656e6420746f6b656e7320746f207468652077656260008201527f7369746500000000000000000000000000000000000000000000000000000000602082015250565b7f4164647265737320616c726561647920626c61636b6c69737465640000000000600082015250565b61100e81610ddd565b811461101957600080fd5b50565b61102581610def565b811461103057600080fd5b50565b61103c81610e1b565b811461104757600080fd5b5056fea26469706673582212200eaa49e8712200a948d4bcdf097bb55b4ce160a6dfb715e9e166a3fcfcb3add564736f6c63430008040033",
  "immutableReferences": {},
  "source": "// SPDX-License-Identifier: MIT\npragma solidity ^0.8.4;\n\nimport \"./Dai.sol\";\n\ncontract AdEthNFT {\n  address public owner;\n  address public factory;\n  address public adCaller;\n  string public uri;\n  uint8 public cpc;\n  address public tokenAddress;\n  \n  mapping(address => bool) public whitelist;\n  \n  event Whitelisted(address newAddress);\n  event Blacklisted(address newAddress);\n  event Clicked(address websiteAddress, uint8 cpc);\n\n  constructor(address _newOwner, address _newAdCaller, string memory _newUri, uint8 _newCpc, address _tokenAddress) {\n    factory = msg.sender;\n    owner = _newOwner;\n    adCaller = _newAdCaller;\n    uri = _newUri;\n    cpc = _newCpc;\n    tokenAddress = _tokenAddress;\n  }\n\n  modifier onlyOwner {\n    require(msg.sender == owner);\n    _;\n  }\n\n  modifier onlyAdCaller {\n    require(msg.sender == adCaller);\n    _;\n  }\n\n  function whitelistAddress(address _newAddress) public onlyOwner {\n    require(_newAddress != address(0), \"Address 0\");\n    require(whitelist[_newAddress] == false, \"Address already whitelisted\");\n    \n    whitelist[_newAddress] = true;\n    \n    emit Whitelisted(_newAddress);\n  }\n\n  function blacklistAddress(address _newAddress) public onlyOwner {\n    require(_newAddress != address(0), \"Address 0\");\n    require(whitelist[_newAddress] == true, \"Address already blacklisted\");\n    \n    whitelist[_newAddress] = false;\n    \n    emit Blacklisted(_newAddress);\n  }\n\n  function beenClicked(address websiteAddress) public onlyAdCaller {\n    require(whitelist[websiteAddress] == true, \"Website address not whitelisted\");\n    \n    Dai tokenContract = Dai(tokenAddress);\n    require(tokenContract.balanceOf(address(this)) >= cpc, \"Insufficient erc20 balance\");\n    require(tokenContract.transferFrom(address(this), websiteAddress, cpc) == true, \"Could not send tokens to the website\");\n    emit Clicked(websiteAddress, cpc);\n  }\n\n  //function callerBalance()\n}",
  "sourcePath": "C:/Users/rapha/Documents/IT/AdETH/contracts/AdEthNFT.sol",
  "compiler": {
    "name": "solc",
    "version": "0.8.4+commit.c7e474f2.Emscripten.clang"
  },
  "schemaVersion": "3.4.0",
  "updatedAt": "2021-05-29T01:11:08.209Z",
  "networkType": "ethereum",
  "devdoc": {
    "kind": "dev",
    "methods": {},
    "version": 1
  },
  "userdoc": {
    "kind": "user",
    "methods": {},
    "version": 1
  }
}