{
  "contractName": "AdEthFactory",
  "abi": [
    {
      "inputs": [
        {
          "internalType": "address",
          "name": "_erc20Address",
          "type": "address"
        },
        {
          "internalType": "uint256",
          "name": "_fee",
          "type": "uint256"
        }
      ],
      "stateMutability": "nonpayable",
      "type": "constructor"
    },
    {
      "anonymous": false,
      "inputs": [
        {
          "indexed": true,
          "internalType": "address",
          "name": "customer",
          "type": "address"
        },
        {
          "indexed": true,
          "internalType": "address",
          "name": "AdEthNFT",
          "type": "address"
        },
        {
          "indexed": false,
          "internalType": "uint256",
          "name": "budget",
          "type": "uint256"
        }
      ],
      "name": "FactoryProduction",
      "type": "event"
    },
    {
      "anonymous": false,
      "inputs": [
        {
          "indexed": true,
          "internalType": "address",
          "name": "previousOwner",
          "type": "address"
        },
        {
          "indexed": true,
          "internalType": "address",
          "name": "newOwner",
          "type": "address"
        }
      ],
      "name": "OwnershipTransferred",
      "type": "event"
    },
    {
      "anonymous": false,
      "inputs": [
        {
          "indexed": false,
          "internalType": "address",
          "name": "account",
          "type": "address"
        }
      ],
      "name": "Paused",
      "type": "event"
    },
    {
      "anonymous": false,
      "inputs": [
        {
          "indexed": true,
          "internalType": "address",
          "name": "sender",
          "type": "address"
        },
        {
          "indexed": true,
          "internalType": "uint256",
          "name": "amount",
          "type": "uint256"
        }
      ],
      "name": "ReceivedEther",
      "type": "event"
    },
    {
      "anonymous": false,
      "inputs": [
        {
          "indexed": false,
          "internalType": "address",
          "name": "account",
          "type": "address"
        }
      ],
      "name": "Unpaused",
      "type": "event"
    },
    {
      "stateMutability": "payable",
      "type": "fallback",
      "payable": true
    },
    {
      "inputs": [],
      "name": "erc20Address",
      "outputs": [
        {
          "internalType": "address",
          "name": "",
          "type": "address"
        }
      ],
      "stateMutability": "view",
      "type": "function",
      "constant": true
    },
    {
      "inputs": [],
      "name": "owner",
      "outputs": [
        {
          "internalType": "address",
          "name": "",
          "type": "address"
        }
      ],
      "stateMutability": "view",
      "type": "function",
      "constant": true
    },
    {
      "inputs": [],
      "name": "paused",
      "outputs": [
        {
          "internalType": "bool",
          "name": "",
          "type": "bool"
        }
      ],
      "stateMutability": "view",
      "type": "function",
      "constant": true
    },
    {
      "inputs": [],
      "name": "renounceOwnership",
      "outputs": [],
      "stateMutability": "nonpayable",
      "type": "function"
    },
    {
      "inputs": [
        {
          "internalType": "address",
          "name": "newOwner",
          "type": "address"
        }
      ],
      "name": "transferOwnership",
      "outputs": [],
      "stateMutability": "nonpayable",
      "type": "function"
    },
    {
      "stateMutability": "payable",
      "type": "receive",
      "payable": true
    },
    {
      "inputs": [],
      "name": "lockContract",
      "outputs": [],
      "stateMutability": "nonpayable",
      "type": "function"
    },
    {
      "inputs": [],
      "name": "unlockContract",
      "outputs": [],
      "stateMutability": "nonpayable",
      "type": "function"
    },
    {
      "inputs": [
        {
          "internalType": "uint256",
          "name": "budget",
          "type": "uint256"
        },
        {
          "internalType": "address",
          "name": "_newAdCaller",
          "type": "address"
        },
        {
          "internalType": "string",
          "name": "_newUri",
          "type": "string"
        },
        {
          "internalType": "uint256",
          "name": "_newCpc",
          "type": "uint256"
        },
        {
          "internalType": "address",
          "name": "_tokenAddress",
          "type": "address"
        }
      ],
      "name": "createAdEthNFT",
      "outputs": [],
      "stateMutability": "nonpayable",
      "type": "function"
    }
  ],
  "bytecode": "0x60806040523480156200001157600080fd5b5060405162002d5138038062002d5183398181016040528101906200003791906200018f565b6000620000496200015960201b60201c565b9050806000806101000a81548173ffffffffffffffffffffffffffffffffffffffff021916908373ffffffffffffffffffffffffffffffffffffffff1602179055508073ffffffffffffffffffffffffffffffffffffffff16600073ffffffffffffffffffffffffffffffffffffffff167f8be0079c531659141344cd1fd0a4f28419497f9722a3daafe3b4186f6b6457e060405160405180910390a350600180819055506000600260006101000a81548160ff02191690831515021790555081600260016101000a81548173ffffffffffffffffffffffffffffffffffffffff021916908373ffffffffffffffffffffffffffffffffffffffff16021790555080600481905550505062000242565b600033905090565b60008151905062000172816200020e565b92915050565b600081519050620001898162000228565b92915050565b60008060408385031215620001a357600080fd5b6000620001b38582860162000161565b9250506020620001c68582860162000178565b9150509250929050565b6000620001dd82620001e4565b9050919050565b600073ffffffffffffffffffffffffffffffffffffffff82169050919050565b6000819050919050565b6200021981620001d0565b81146200022557600080fd5b50565b620002338162000204565b81146200023f57600080fd5b50565b612aff80620002526000396000f3fe6080604052600436106200008b5760003560e01c8063753868e31162000055578063753868e314620001bd5780638da5cb5b14620001d7578063c4950df01462000207578063f2fde38b14620002355762000124565b806322f0f2f91462000129578063276184ae14620001435780635c975abb1462000173578063715018a614620001a35762000124565b3662000124576200009b62000263565b15620000de576040517f08c379a0000000000000000000000000000000000000000000000000000000008152600401620000d590620011b0565b60405180910390fd5b343373ffffffffffffffffffffffffffffffffffffffff167fa419615bc8fda4c87663805ee2a3597a6d71c1d476911d9892f340d965bc7bf160405160405180910390a3005b600080fd5b3480156200013657600080fd5b50620001416200027a565b005b3480156200015057600080fd5b506200015b62000309565b6040516200016a919062001020565b60405180910390f35b3480156200018057600080fd5b506200018b62000263565b6040516200019a91906200110b565b60405180910390f35b348015620001b057600080fd5b50620001bb6200032f565b005b348015620001ca57600080fd5b50620001d562000470565b005b348015620001e457600080fd5b50620001ef620004ff565b604051620001fe919062001020565b60405180910390f35b3480156200021457600080fd5b506200023360048036038101906200022d919062000e00565b62000528565b005b3480156200024257600080fd5b506200026160048036038101906200025b919062000d7c565b6200098e565b005b6000600260009054906101000a900460ff16905090565b6200028462000b41565b73ffffffffffffffffffffffffffffffffffffffff16620002a4620004ff565b73ffffffffffffffffffffffffffffffffffffffff1614620002fd576040517f08c379a0000000000000000000000000000000000000000000000000000000008152600401620002f490620011d2565b60405180910390fd5b6200030762000b49565b565b600260019054906101000a900473ffffffffffffffffffffffffffffffffffffffff1681565b6200033962000b41565b73ffffffffffffffffffffffffffffffffffffffff1662000359620004ff565b73ffffffffffffffffffffffffffffffffffffffff1614620003b2576040517f08c379a0000000000000000000000000000000000000000000000000000000008152600401620003a990620011d2565b60405180910390fd5b600073ffffffffffffffffffffffffffffffffffffffff1660008054906101000a900473ffffffffffffffffffffffffffffffffffffffff1673ffffffffffffffffffffffffffffffffffffffff167f8be0079c531659141344cd1fd0a4f28419497f9722a3daafe3b4186f6b6457e060405160405180910390a360008060006101000a81548173ffffffffffffffffffffffffffffffffffffffff021916908373ffffffffffffffffffffffffffffffffffffffff160217905550565b6200047a62000b41565b73ffffffffffffffffffffffffffffffffffffffff166200049a620004ff565b73ffffffffffffffffffffffffffffffffffffffff1614620004f3576040517f08c379a0000000000000000000000000000000000000000000000000000000008152600401620004ea90620011d2565b60405180910390fd5b620004fd62000bf4565b565b60008060009054906101000a900473ffffffffffffffffffffffffffffffffffffffff16905090565b6000600260019054906101000a900473ffffffffffffffffffffffffffffffffffffffff169050858173ffffffffffffffffffffffffffffffffffffffff166370a08231336040518263ffffffff1660e01b81526004016200058b919062001020565b60206040518083038186803b158015620005a457600080fd5b505afa158015620005b9573d6000803e3d6000fd5b505050506040513d601f19601f82011682018060405250810190620005df919062000dd4565b101562000623576040517f08c379a00000000000000000000000000000000000000000000000000000000081526004016200061a906200114a565b60405180910390fd5b858173ffffffffffffffffffffffffffffffffffffffff1663dd62ed3e33306040518363ffffffff1660e01b8152600401620006619291906200103d565b60206040518083038186803b1580156200067a57600080fd5b505afa1580156200068f573d6000803e3d6000fd5b505050506040513d601f19601f82011682018060405250810190620006b5919062000dd4565b1015620006f9576040517f08c379a0000000000000000000000000000000000000000000000000000000008152600401620006f0906200118e565b60405180910390fd5b600115158173ffffffffffffffffffffffffffffffffffffffff166323b872dd33308a6040518463ffffffff1660e01b81526004016200073c93929190620010ce565b602060405180830381600087803b1580156200075757600080fd5b505af11580156200076c573d6000803e3d6000fd5b505050506040513d601f19601f8201168201806040525081019062000792919062000da8565b151514620007d7576040517f08c379a0000000000000000000000000000000000000000000000000000000008152600401620007ce90620011f4565b60405180910390fd5b60003386868686604051620007ec9062000ca0565b620007fc9594939291906200106a565b604051809103906000f08015801562000819573d6000803e3d6000fd5b5090506003819080600181540180825580915050600190039060005260206000200160009091909190916101000a81548173ffffffffffffffffffffffffffffffffffffffff021916908373ffffffffffffffffffffffffffffffffffffffff1602179055508173ffffffffffffffffffffffffffffffffffffffff166323b872dd30838a6040518463ffffffff1660e01b8152600401620008be93929190620010ce565b602060405180830381600087803b158015620008d957600080fd5b505af1158015620008ee573d6000803e3d6000fd5b505050506040513d601f19601f8201168201806040525081019062000914919062000da8565b6200091e57600080fd5b8073ffffffffffffffffffffffffffffffffffffffff163373ffffffffffffffffffffffffffffffffffffffff167fe98fbd4d7d5a3fe7eec1cd1cd63e4d167dafe321d7589bcbb3c839ad41dc3ad1896040516200097d919062001216565b60405180910390a350505050505050565b6200099862000b41565b73ffffffffffffffffffffffffffffffffffffffff16620009b8620004ff565b73ffffffffffffffffffffffffffffffffffffffff161462000a11576040517f08c379a000000000000000000000000000000000000000000000000000000000815260040162000a0890620011d2565b60405180910390fd5b600073ffffffffffffffffffffffffffffffffffffffff168173ffffffffffffffffffffffffffffffffffffffff16141562000a84576040517f08c379a000000000000000000000000000000000000000000000000000000000815260040162000a7b906200116c565b60405180910390fd5b8073ffffffffffffffffffffffffffffffffffffffff1660008054906101000a900473ffffffffffffffffffffffffffffffffffffffff1673ffffffffffffffffffffffffffffffffffffffff167f8be0079c531659141344cd1fd0a4f28419497f9722a3daafe3b4186f6b6457e060405160405180910390a3806000806101000a81548173ffffffffffffffffffffffffffffffffffffffff021916908373ffffffffffffffffffffffffffffffffffffffff16021790555050565b600033905090565b62000b5362000263565b62000b95576040517f08c379a000000000000000000000000000000000000000000000000000000000815260040162000b8c9062001128565b60405180910390fd5b6000600260006101000a81548160ff0219169083151502179055507f5db9ee0a495bf2e6ff9c91a7834c1ba4fdd244a5e8aa4e537bd38aeae4b073aa62000bdb62000b41565b60405162000bea919062001020565b60405180910390a1565b62000bfe62000263565b1562000c41576040517f08c379a000000000000000000000000000000000000000000000000000000000815260040162000c3890620011b0565b60405180910390fd5b6001600260006101000a81548160ff0219169083151502179055507f62e78cea01bee320cd4e420270b5ea74000d11b0c9f74754ebdbfc544b05a25862000c8762000b41565b60405162000c96919062001020565b60405180910390a1565b61155d806200156d83390190565b600062000cc562000cbf846200125c565b62001233565b90508281526020810184848401111562000cde57600080fd5b62000ceb848285620012f8565b509392505050565b60008135905062000d04816200151e565b92915050565b60008151905062000d1b8162001538565b92915050565b600082601f83011262000d3357600080fd5b813562000d4584826020860162000cae565b91505092915050565b60008135905062000d5f8162001552565b92915050565b60008151905062000d768162001552565b92915050565b60006020828403121562000d8f57600080fd5b600062000d9f8482850162000cf3565b91505092915050565b60006020828403121562000dbb57600080fd5b600062000dcb8482850162000d0a565b91505092915050565b60006020828403121562000de757600080fd5b600062000df78482850162000d65565b91505092915050565b600080600080600060a0868803121562000e1957600080fd5b600062000e298882890162000d4e565b955050602062000e3c8882890162000cf3565b945050604086013567ffffffffffffffff81111562000e5a57600080fd5b62000e688882890162000d21565b935050606062000e7b8882890162000d4e565b925050608062000e8e8882890162000cf3565b9150509295509295909350565b62000ea681620012ae565b82525050565b62000eb781620012c2565b82525050565b600062000eca8262001292565b62000ed681856200129d565b935062000ee881856020860162001307565b62000ef381620013a2565b840191505092915050565b600062000f0d6014836200129d565b915062000f1a82620013b3565b602082019050919050565b600062000f34601a836200129d565b915062000f4182620013dc565b602082019050919050565b600062000f5b6026836200129d565b915062000f688262001405565b604082019050919050565b600062000f82601c836200129d565b915062000f8f8262001454565b602082019050919050565b600062000fa96010836200129d565b915062000fb6826200147d565b602082019050919050565b600062000fd06020836200129d565b915062000fdd82620014a6565b602082019050919050565b600062000ff76022836200129d565b91506200100482620014cf565b604082019050919050565b6200101a81620012ee565b82525050565b600060208201905062001037600083018462000e9b565b92915050565b600060408201905062001054600083018562000e9b565b62001063602083018462000e9b565b9392505050565b600060a08201905062001081600083018862000e9b565b62001090602083018762000e9b565b8181036040830152620010a4818662000ebd565b9050620010b560608301856200100f565b620010c4608083018462000e9b565b9695505050505050565b6000606082019050620010e5600083018662000e9b565b620010f4602083018562000e9b565b6200110360408301846200100f565b949350505050565b600060208201905062001122600083018462000eac565b92915050565b60006020820190508181036000830152620011438162000efe565b9050919050565b60006020820190508181036000830152620011658162000f25565b9050919050565b60006020820190508181036000830152620011878162000f4c565b9050919050565b60006020820190508181036000830152620011a98162000f73565b9050919050565b60006020820190508181036000830152620011cb8162000f9a565b9050919050565b60006020820190508181036000830152620011ed8162000fc1565b9050919050565b600060208201905081810360008301526200120f8162000fe8565b9050919050565b60006020820190506200122d60008301846200100f565b92915050565b60006200123f62001252565b90506200124d82826200133d565b919050565b6000604051905090565b600067ffffffffffffffff8211156200127a576200127962001373565b5b6200128582620013a2565b9050602081019050919050565b600081519050919050565b600082825260208201905092915050565b6000620012bb82620012ce565b9050919050565b60008115159050919050565b600073ffffffffffffffffffffffffffffffffffffffff82169050919050565b6000819050919050565b82818337600083830152505050565b60005b83811015620013275780820151818401526020810190506200130a565b8381111562001337576000848401525b50505050565b6200134882620013a2565b810181811067ffffffffffffffff821117156200136a576200136962001373565b5b80604052505050565b7f4e487b7100000000000000000000000000000000000000000000000000000000600052604160045260246000fd5b6000601f19601f8301169050919050565b7f5061757361626c653a206e6f7420706175736564000000000000000000000000600082015250565b7f496e73756666696369656e742065726332302062616c616e6365000000000000600082015250565b7f4f776e61626c653a206e6577206f776e657220697320746865207a65726f206160008201527f6464726573730000000000000000000000000000000000000000000000000000602082015250565b7f496e73756666696369656e7420657263323020616c6c6f77616e636500000000600082015250565b7f5061757361626c653a2070617573656400000000000000000000000000000000600082015250565b7f4f776e61626c653a2063616c6c6572206973206e6f7420746865206f776e6572600082015250565b7f436f756c64206e6f742067657420746f6b656e732066726f6d20637573746f6d60008201527f6572000000000000000000000000000000000000000000000000000000000000602082015250565b6200152981620012ae565b81146200153557600080fd5b50565b6200154381620012c2565b81146200154f57600080fd5b50565b6200155d81620012ee565b81146200156957600080fd5b5056fe60806040523480156200001157600080fd5b506040516200155d3803806200155d8339818101604052810190620000379190620002b5565b33600160006101000a81548173ffffffffffffffffffffffffffffffffffffffff021916908373ffffffffffffffffffffffffffffffffffffffff160217905550846000806101000a81548173ffffffffffffffffffffffffffffffffffffffff021916908373ffffffffffffffffffffffffffffffffffffffff16021790555083600260006101000a81548173ffffffffffffffffffffffffffffffffffffffff021916908373ffffffffffffffffffffffffffffffffffffffff16021790555082600390805190602001906200011192919062000165565b508160048190555080600560006101000a81548173ffffffffffffffffffffffffffffffffffffffff021916908373ffffffffffffffffffffffffffffffffffffffff160217905550505050505062000532565b828054620001739062000423565b90600052602060002090601f016020900481019282620001975760008555620001e3565b82601f10620001b257805160ff1916838001178555620001e3565b82800160010185558215620001e3579182015b82811115620001e2578251825591602001919060010190620001c5565b5b509050620001f29190620001f6565b5090565b5b8082111562000211576000816000905550600101620001f7565b5090565b60006200022c620002268462000379565b62000350565b9050828152602081018484840111156200024557600080fd5b62000252848285620003ed565b509392505050565b6000815190506200026b81620004fe565b92915050565b600082601f8301126200028357600080fd5b81516200029584826020860162000215565b91505092915050565b600081519050620002af8162000518565b92915050565b600080600080600060a08688031215620002ce57600080fd5b6000620002de888289016200025a565b9550506020620002f1888289016200025a565b945050604086015167ffffffffffffffff8111156200030f57600080fd5b6200031d8882890162000271565b935050606062000330888289016200029e565b925050608062000343888289016200025a565b9150509295509295909350565b60006200035c6200036f565b90506200036a828262000459565b919050565b6000604051905090565b600067ffffffffffffffff821115620003975762000396620004be565b5b620003a282620004ed565b9050602081019050919050565b6000620003bc82620003c3565b9050919050565b600073ffffffffffffffffffffffffffffffffffffffff82169050919050565b6000819050919050565b60005b838110156200040d578082015181840152602081019050620003f0565b838111156200041d576000848401525b50505050565b600060028204905060018216806200043c57607f821691505b602082108114156200045357620004526200048f565b5b50919050565b6200046482620004ed565b810181811067ffffffffffffffff82111715620004865762000485620004be565b5b80604052505050565b7f4e487b7100000000000000000000000000000000000000000000000000000000600052602260045260246000fd5b7f4e487b7100000000000000000000000000000000000000000000000000000000600052604160045260246000fd5b6000601f19601f8301169050919050565b6200050981620003af565b81146200051557600080fd5b50565b6200052381620003e3565b81146200052f57600080fd5b50565b61101b80620005426000396000f3fe608060405234801561001057600080fd5b506004361061009e5760003560e01c80639d76ea58116100665780639d76ea5814610147578063b3af59d414610165578063c45a015514610183578063eac989f8146101a1578063f3290d75146101bf5761009e565b806339204117146100a357806341566585146100bf57806382971a84146100db5780638da5cb5b146100f95780639b19251a14610117575b600080fd5b6100bd60048036038101906100b89190610a35565b6101db565b005b6100d960048036038101906100d49190610a35565b6104d2565b005b6100e36106bf565b6040516100f09190610d60565b60405180910390f35b6101016106c5565b60405161010e9190610be8565b60405180910390f35b610131600480360381019061012c9190610a35565b6106e9565b60405161013e9190610c63565b60405180910390f35b61014f610709565b60405161015c9190610be8565b60405180910390f35b61016d61072f565b60405161017a9190610be8565b60405180910390f35b61018b610755565b6040516101989190610be8565b60405180910390f35b6101a961077b565b6040516101b69190610c7e565b60405180910390f35b6101d960048036038101906101d49190610a35565b610809565b005b600260009054906101000a900473ffffffffffffffffffffffffffffffffffffffff1673ffffffffffffffffffffffffffffffffffffffff163373ffffffffffffffffffffffffffffffffffffffff161461023557600080fd5b60011515600660008373ffffffffffffffffffffffffffffffffffffffff1673ffffffffffffffffffffffffffffffffffffffff16815260200190815260200160002060009054906101000a900460ff161515146102c8576040517f08c379a00000000000000000000000000000000000000000000000000000000081526004016102bf90610ce0565b60405180910390fd5b6000600560009054906101000a900473ffffffffffffffffffffffffffffffffffffffff1690506004548173ffffffffffffffffffffffffffffffffffffffff166370a08231306040518263ffffffff1660e01b815260040161032b9190610be8565b60206040518083038186803b15801561034357600080fd5b505afa158015610357573d6000803e3d6000fd5b505050506040513d601f19601f8201168201806040525081019061037b9190610a87565b10156103bc576040517f08c379a00000000000000000000000000000000000000000000000000000000081526004016103b390610ca0565b60405180910390fd5b600115158173ffffffffffffffffffffffffffffffffffffffff166323b872dd30856004546040518463ffffffff1660e01b81526004016103ff93929190610c03565b602060405180830381600087803b15801561041957600080fd5b505af115801561042d573d6000803e3d6000fd5b505050506040513d601f19601f820116820180604052508101906104519190610a5e565b151514610493576040517f08c379a000000000000000000000000000000000000000000000000000000000815260040161048a90610d20565b60405180910390fd5b7ff7e8b307dd9151a22531391287117d703ae3480e5d287e15410155081dbb7115826004546040516104c6929190610c3a565b60405180910390a15050565b60008054906101000a900473ffffffffffffffffffffffffffffffffffffffff1673ffffffffffffffffffffffffffffffffffffffff163373ffffffffffffffffffffffffffffffffffffffff161461052a57600080fd5b600073ffffffffffffffffffffffffffffffffffffffff168173ffffffffffffffffffffffffffffffffffffffff16141561059a576040517f08c379a000000000000000000000000000000000000000000000000000000000815260040161059190610cc0565b60405180910390fd5b60001515600660008373ffffffffffffffffffffffffffffffffffffffff1673ffffffffffffffffffffffffffffffffffffffff16815260200190815260200160002060009054906101000a900460ff1615151461062d576040517f08c379a000000000000000000000000000000000000000000000000000000000815260040161062490610d00565b60405180910390fd5b6001600660008373ffffffffffffffffffffffffffffffffffffffff1673ffffffffffffffffffffffffffffffffffffffff16815260200190815260200160002060006101000a81548160ff0219169083151502179055507faab7954e9d246b167ef88aeddad35209ca2489d95a8aeb59e288d9b19fae5a54816040516106b49190610be8565b60405180910390a150565b60045481565b60008054906101000a900473ffffffffffffffffffffffffffffffffffffffff1681565b60066020528060005260406000206000915054906101000a900460ff1681565b600560009054906101000a900473ffffffffffffffffffffffffffffffffffffffff1681565b600260009054906101000a900473ffffffffffffffffffffffffffffffffffffffff1681565b600160009054906101000a900473ffffffffffffffffffffffffffffffffffffffff1681565b6003805461078890610e12565b80601f01602080910402602001604051908101604052809291908181526020018280546107b490610e12565b80156108015780601f106107d657610100808354040283529160200191610801565b820191906000526020600020905b8154815290600101906020018083116107e457829003601f168201915b505050505081565b60008054906101000a900473ffffffffffffffffffffffffffffffffffffffff1673ffffffffffffffffffffffffffffffffffffffff163373ffffffffffffffffffffffffffffffffffffffff161461086157600080fd5b600073ffffffffffffffffffffffffffffffffffffffff168173ffffffffffffffffffffffffffffffffffffffff1614156108d1576040517f08c379a00000000000000000000000000000000000000000000000000000000081526004016108c890610cc0565b60405180910390fd5b60011515600660008373ffffffffffffffffffffffffffffffffffffffff1673ffffffffffffffffffffffffffffffffffffffff16815260200190815260200160002060009054906101000a900460ff16151514610964576040517f08c379a000000000000000000000000000000000000000000000000000000000815260040161095b90610d40565b60405180910390fd5b6000600660008373ffffffffffffffffffffffffffffffffffffffff1673ffffffffffffffffffffffffffffffffffffffff16815260200190815260200160002060006101000a81548160ff0219169083151502179055507fffa4e6181777692565cf28528fc88fd1516ea86b56da075235fa575af6a4b855816040516109eb9190610be8565b60405180910390a150565b600081359050610a0581610fa0565b92915050565b600081519050610a1a81610fb7565b92915050565b600081519050610a2f81610fce565b92915050565b600060208284031215610a4757600080fd5b6000610a55848285016109f6565b91505092915050565b600060208284031215610a7057600080fd5b6000610a7e84828501610a0b565b91505092915050565b600060208284031215610a9957600080fd5b6000610aa784828501610a20565b91505092915050565b610ab981610d97565b82525050565b610ac881610da9565b82525050565b6000610ad982610d7b565b610ae38185610d86565b9350610af3818560208601610ddf565b610afc81610e73565b840191505092915050565b6000610b14601a83610d86565b9150610b1f82610e84565b602082019050919050565b6000610b37600983610d86565b9150610b4282610ead565b602082019050919050565b6000610b5a601f83610d86565b9150610b6582610ed6565b602082019050919050565b6000610b7d601b83610d86565b9150610b8882610eff565b602082019050919050565b6000610ba0602483610d86565b9150610bab82610f28565b604082019050919050565b6000610bc3601b83610d86565b9150610bce82610f77565b602082019050919050565b610be281610dd5565b82525050565b6000602082019050610bfd6000830184610ab0565b92915050565b6000606082019050610c186000830186610ab0565b610c256020830185610ab0565b610c326040830184610bd9565b949350505050565b6000604082019050610c4f6000830185610ab0565b610c5c6020830184610bd9565b9392505050565b6000602082019050610c786000830184610abf565b92915050565b60006020820190508181036000830152610c988184610ace565b905092915050565b60006020820190508181036000830152610cb981610b07565b9050919050565b60006020820190508181036000830152610cd981610b2a565b9050919050565b60006020820190508181036000830152610cf981610b4d565b9050919050565b60006020820190508181036000830152610d1981610b70565b9050919050565b60006020820190508181036000830152610d3981610b93565b9050919050565b60006020820190508181036000830152610d5981610bb6565b9050919050565b6000602082019050610d756000830184610bd9565b92915050565b600081519050919050565b600082825260208201905092915050565b6000610da282610db5565b9050919050565b60008115159050919050565b600073ffffffffffffffffffffffffffffffffffffffff82169050919050565b6000819050919050565b60005b83811015610dfd578082015181840152602081019050610de2565b83811115610e0c576000848401525b50505050565b60006002820490506001821680610e2a57607f821691505b60208210811415610e3e57610e3d610e44565b5b50919050565b7f4e487b7100000000000000000000000000000000000000000000000000000000600052602260045260246000fd5b6000601f19601f8301169050919050565b7f496e73756666696369656e742065726332302062616c616e6365000000000000600082015250565b7f4164647265737320300000000000000000000000000000000000000000000000600082015250565b7f576562736974652061646472657373206e6f742077686974656c697374656400600082015250565b7f4164647265737320616c72656164792077686974656c69737465640000000000600082015250565b7f436f756c64206e6f742073656e6420746f6b656e7320746f207468652077656260008201527f7369746500000000000000000000000000000000000000000000000000000000602082015250565b7f4164647265737320616c726561647920626c61636b6c69737465640000000000600082015250565b610fa981610d97565b8114610fb457600080fd5b50565b610fc081610da9565b8114610fcb57600080fd5b50565b610fd781610dd5565b8114610fe257600080fd5b5056fea264697066735822122011778b0b51c33c06b6bcfe0e21951cc1d2d7a33201c60d6e3937aaa6eb96749364736f6c63430008040033a264697066735822122000991eb52516f7d32cea98e73daceb06a586e382c4cb80c10144cb58efe155b464736f6c63430008040033",
  "immutableReferences": {},
  "source": "// SPDX-License-Identifier: MIT\npragma solidity ^0.8.4;\n\nimport \"./Ownable.sol\";\nimport \"./ReentrancyGuard.sol\";\nimport \"./Pausable.sol\";\nimport \"./Dai.sol\";\nimport \"./AdEthNFT.sol\";\n\ncontract AdEthFactory is Ownable, ReentrancyGuard, Pausable {\n  address public erc20Address;\n  address[] AdEthNFTs;\n  uint fee;\n\n  event ReceivedEther(address indexed sender, uint indexed amount);\n  event FactoryProduction(address indexed customer, address indexed AdEthNFT, uint budget);\n  \n  constructor(address _erc20Address, uint _fee) {\n    erc20Address = _erc20Address;\n    fee = _fee;\n  }\n\n  receive() external payable whenNotPaused {\n    emit ReceivedEther(msg.sender, msg.value);\n  }\n  \n  fallback() external payable {\n    revert();\n  }\n\n  function lockContract() public onlyOwner {\n    _pause();\n  }\n\n  function unlockContract() public onlyOwner {\n    _unpause();\n  }\n\n  function createAdEthNFT(uint budget, address _newAdCaller, string memory _newUri, uint256 _newCpc, address _tokenAddress) public {\n    Dai tokenContract = Dai(erc20Address);\n    require(tokenContract.balanceOf(msg.sender) >= budget, \"Insufficient erc20 balance\");\n    require(tokenContract.allowance(msg.sender, address(this)) >= budget, \"Insufficient erc20 allowance\");\n    require(tokenContract.transferFrom(msg.sender, address(this), budget) == true, \"Could not get tokens from customer\");\n\n    AdEthNFT newAdEthNFT = new AdEthNFT(msg.sender, _newAdCaller, _newUri, _newCpc, _tokenAddress);\n    AdEthNFTs.push(address(newAdEthNFT));\n    require(tokenContract.transferFrom(address(this), address(newAdEthNFT), budget));\n    \n    emit FactoryProduction(msg.sender, address(newAdEthNFT), budget);\n  }\n}",
  "sourcePath": "C:/Users/rapha/Documents/IT/AdETH/contracts/AdEthFactory.sol",
  "compiler": {
    "name": "solc",
    "version": "0.8.4+commit.c7e474f2.Emscripten.clang"
  },
  "schemaVersion": "3.4.0",
  "updatedAt": "2021-05-29T02:39:12.707Z",
  "networkType": "ethereum",
  "devdoc": {
    "kind": "dev",
    "methods": {
      "owner()": {
        "details": "Returns the address of the current owner."
      },
      "paused()": {
        "details": "Returns true if the contract is paused, and false otherwise."
      },
      "renounceOwnership()": {
        "details": "Leaves the contract without owner. It will not be possible to call `onlyOwner` functions anymore. Can only be called by the current owner. NOTE: Renouncing ownership will leave the contract without an owner, thereby removing any functionality that is only available to the owner."
      },
      "transferOwnership(address)": {
        "details": "Transfers ownership of the contract to a new account (`newOwner`). Can only be called by the current owner."
      }
    },
    "version": 1
  },
  "userdoc": {
    "kind": "user",
    "methods": {},
    "version": 1
  }
}