{
  "contractName": "AdEthFactory",
  "abi": [
    {
      "inputs": [
        {
          "internalType": "address",
          "name": "_erc20Address",
          "type": "address"
        }
      ],
      "stateMutability": "nonpayable",
      "type": "constructor"
    },
    {
      "anonymous": false,
      "inputs": [
        {
          "indexed": true,
          "internalType": "address",
          "name": "previousOwner",
          "type": "address"
        },
        {
          "indexed": true,
          "internalType": "address",
          "name": "newOwner",
          "type": "address"
        }
      ],
      "name": "OwnershipTransferred",
      "type": "event"
    },
    {
      "anonymous": false,
      "inputs": [
        {
          "indexed": false,
          "internalType": "address",
          "name": "account",
          "type": "address"
        }
      ],
      "name": "Paused",
      "type": "event"
    },
    {
      "anonymous": false,
      "inputs": [
        {
          "indexed": true,
          "internalType": "address",
          "name": "sender",
          "type": "address"
        },
        {
          "indexed": true,
          "internalType": "uint256",
          "name": "amount",
          "type": "uint256"
        }
      ],
      "name": "ReceivedEther",
      "type": "event"
    },
    {
      "anonymous": false,
      "inputs": [
        {
          "indexed": false,
          "internalType": "address",
          "name": "account",
          "type": "address"
        }
      ],
      "name": "Unpaused",
      "type": "event"
    },
    {
      "stateMutability": "payable",
      "type": "fallback"
    },
    {
      "inputs": [],
      "name": "erc20Address",
      "outputs": [
        {
          "internalType": "address",
          "name": "",
          "type": "address"
        }
      ],
      "stateMutability": "view",
      "type": "function"
    },
    {
      "inputs": [],
      "name": "owner",
      "outputs": [
        {
          "internalType": "address",
          "name": "",
          "type": "address"
        }
      ],
      "stateMutability": "view",
      "type": "function"
    },
    {
      "inputs": [],
      "name": "paused",
      "outputs": [
        {
          "internalType": "bool",
          "name": "",
          "type": "bool"
        }
      ],
      "stateMutability": "view",
      "type": "function"
    },
    {
      "inputs": [],
      "name": "renounceOwnership",
      "outputs": [],
      "stateMutability": "nonpayable",
      "type": "function"
    },
    {
      "inputs": [
        {
          "internalType": "address",
          "name": "newOwner",
          "type": "address"
        }
      ],
      "name": "transferOwnership",
      "outputs": [],
      "stateMutability": "nonpayable",
      "type": "function"
    },
    {
      "stateMutability": "payable",
      "type": "receive"
    },
    {
      "inputs": [],
      "name": "lockContract",
      "outputs": [],
      "stateMutability": "nonpayable",
      "type": "function"
    },
    {
      "inputs": [],
      "name": "unlockContract",
      "outputs": [],
      "stateMutability": "nonpayable",
      "type": "function"
    }
  ],
  "bytecode": "0x608060405234801561001057600080fd5b50604051610c88380380610c8883398181016040528101906100329190610166565b600061004261014960201b60201c565b9050806000806101000a81548173ffffffffffffffffffffffffffffffffffffffff021916908373ffffffffffffffffffffffffffffffffffffffff1602179055508073ffffffffffffffffffffffffffffffffffffffff16600073ffffffffffffffffffffffffffffffffffffffff167f8be0079c531659141344cd1fd0a4f28419497f9722a3daafe3b4186f6b6457e060405160405180910390a350600180819055506000600260006101000a81548160ff02191690831515021790555080600260016101000a81548173ffffffffffffffffffffffffffffffffffffffff021916908373ffffffffffffffffffffffffffffffffffffffff160217905550506101d8565b600033905090565b600081519050610160816101c1565b92915050565b60006020828403121561017857600080fd5b600061018684828501610151565b91505092915050565b600061019a826101a1565b9050919050565b600073ffffffffffffffffffffffffffffffffffffffff82169050919050565b6101ca8161018f565b81146101d557600080fd5b50565b610aa1806101e76000396000f3fe6080604052600436106100745760003560e01c8063715018a61161004e578063715018a614610179578063753868e3146101905780638da5cb5b146101a7578063f2fde38b146101d257610107565b806322f0f2f91461010c578063276184ae146101235780635c975abb1461014e57610107565b36610107576100816101fb565b156100c1576040517f08c379a00000000000000000000000000000000000000000000000000000000081526004016100b8906108fb565b60405180910390fd5b343373ffffffffffffffffffffffffffffffffffffffff167fa419615bc8fda4c87663805ee2a3597a6d71c1d476911d9892f340d965bc7bf160405160405180910390a3005b600080fd5b34801561011857600080fd5b50610121610212565b005b34801561012f57600080fd5b50610138610298565b6040516101459190610885565b60405180910390f35b34801561015a57600080fd5b506101636101fb565b60405161017091906108a0565b60405180910390f35b34801561018557600080fd5b5061018e6102be565b005b34801561019c57600080fd5b506101a56103f8565b005b3480156101b357600080fd5b506101bc61047e565b6040516101c99190610885565b60405180910390f35b3480156101de57600080fd5b506101f960048036038101906101f491906107b2565b6104a7565b005b6000600260009054906101000a900460ff16905090565b61021a610650565b73ffffffffffffffffffffffffffffffffffffffff1661023861047e565b73ffffffffffffffffffffffffffffffffffffffff161461028e576040517f08c379a00000000000000000000000000000000000000000000000000000000081526004016102859061091b565b60405180910390fd5b610296610658565b565b600260019054906101000a900473ffffffffffffffffffffffffffffffffffffffff1681565b6102c6610650565b73ffffffffffffffffffffffffffffffffffffffff166102e461047e565b73ffffffffffffffffffffffffffffffffffffffff161461033a576040517f08c379a00000000000000000000000000000000000000000000000000000000081526004016103319061091b565b60405180910390fd5b600073ffffffffffffffffffffffffffffffffffffffff1660008054906101000a900473ffffffffffffffffffffffffffffffffffffffff1673ffffffffffffffffffffffffffffffffffffffff167f8be0079c531659141344cd1fd0a4f28419497f9722a3daafe3b4186f6b6457e060405160405180910390a360008060006101000a81548173ffffffffffffffffffffffffffffffffffffffff021916908373ffffffffffffffffffffffffffffffffffffffff160217905550565b610400610650565b73ffffffffffffffffffffffffffffffffffffffff1661041e61047e565b73ffffffffffffffffffffffffffffffffffffffff1614610474576040517f08c379a000000000000000000000000000000000000000000000000000000000815260040161046b9061091b565b60405180910390fd5b61047c6106fa565b565b60008060009054906101000a900473ffffffffffffffffffffffffffffffffffffffff16905090565b6104af610650565b73ffffffffffffffffffffffffffffffffffffffff166104cd61047e565b73ffffffffffffffffffffffffffffffffffffffff1614610523576040517f08c379a000000000000000000000000000000000000000000000000000000000815260040161051a9061091b565b60405180910390fd5b600073ffffffffffffffffffffffffffffffffffffffff168173ffffffffffffffffffffffffffffffffffffffff161415610593576040517f08c379a000000000000000000000000000000000000000000000000000000000815260040161058a906108db565b60405180910390fd5b8073ffffffffffffffffffffffffffffffffffffffff1660008054906101000a900473ffffffffffffffffffffffffffffffffffffffff1673ffffffffffffffffffffffffffffffffffffffff167f8be0079c531659141344cd1fd0a4f28419497f9722a3daafe3b4186f6b6457e060405160405180910390a3806000806101000a81548173ffffffffffffffffffffffffffffffffffffffff021916908373ffffffffffffffffffffffffffffffffffffffff16021790555050565b600033905090565b6106606101fb565b61069f576040517f08c379a0000000000000000000000000000000000000000000000000000000008152600401610696906108bb565b60405180910390fd5b6000600260006101000a81548160ff0219169083151502179055507f5db9ee0a495bf2e6ff9c91a7834c1ba4fdd244a5e8aa4e537bd38aeae4b073aa6106e3610650565b6040516106f09190610885565b60405180910390a1565b6107026101fb565b15610742576040517f08c379a0000000000000000000000000000000000000000000000000000000008152600401610739906108fb565b60405180910390fd5b6001600260006101000a81548160ff0219169083151502179055507f62e78cea01bee320cd4e420270b5ea74000d11b0c9f74754ebdbfc544b05a258610786610650565b6040516107939190610885565b60405180910390a1565b6000813590506107ac81610a54565b92915050565b6000602082840312156107c457600080fd5b60006107d28482850161079d565b91505092915050565b6107e48161094c565b82525050565b6107f38161095e565b82525050565b600061080660148361093b565b91506108118261098a565b602082019050919050565b600061082960268361093b565b9150610834826109b3565b604082019050919050565b600061084c60108361093b565b915061085782610a02565b602082019050919050565b600061086f60208361093b565b915061087a82610a2b565b602082019050919050565b600060208201905061089a60008301846107db565b92915050565b60006020820190506108b560008301846107ea565b92915050565b600060208201905081810360008301526108d4816107f9565b9050919050565b600060208201905081810360008301526108f48161081c565b9050919050565b600060208201905081810360008301526109148161083f565b9050919050565b6000602082019050818103600083015261093481610862565b9050919050565b600082825260208201905092915050565b60006109578261096a565b9050919050565b60008115159050919050565b600073ffffffffffffffffffffffffffffffffffffffff82169050919050565b7f5061757361626c653a206e6f7420706175736564000000000000000000000000600082015250565b7f4f776e61626c653a206e6577206f776e657220697320746865207a65726f206160008201527f6464726573730000000000000000000000000000000000000000000000000000602082015250565b7f5061757361626c653a2070617573656400000000000000000000000000000000600082015250565b7f4f776e61626c653a2063616c6c6572206973206e6f7420746865206f776e6572600082015250565b610a5d8161094c565b8114610a6857600080fd5b5056fea2646970667358221220980732fcac0b4a0c81dd51b2f1d5640a4cfc7165a72f13046967221bd3fcb75764736f6c63430008040033",
  "immutableReferences": {},
  "source": "// SPDX-License-Identifier: MIT\npragma solidity ^0.8.4;\n\nimport \"./Ownable.sol\";\nimport \"./ReentrancyGuard.sol\";\nimport \"./Pausable.sol\";\nimport \"./Dai.sol\";\n\ncontract AdEthFactory is Ownable, ReentrancyGuard, Pausable {\n  address public erc20Address;\n\n  event ReceivedEther(address indexed sender, uint indexed amount);\n  \n  constructor(address _erc20Address) {\n    erc20Address = _erc20Address;\n  }\n\n  receive() external payable whenNotPaused {\n    emit ReceivedEther(msg.sender, msg.value);\n  }\n  \n  fallback() external payable {\n    revert();\n  }\n\n  function lockContract() public onlyOwner {\n    _pause();\n  }\n\n  function unlockContract() public onlyOwner {\n    _unpause();\n  }\n}",
  "sourcePath": "C:/Users/rapha/Documents/IT/AdETH/contracts/AdEthFactory.sol",
  "compiler": {
    "name": "solc",
    "version": "0.8.4+commit.c7e474f2.Emscripten.clang"
  },
  "schemaVersion": "3.4.0",
  "updatedAt": "2021-05-29T00:30:02.213Z",
  "devdoc": {
    "kind": "dev",
    "methods": {
      "owner()": {
        "details": "Returns the address of the current owner."
      },
      "paused()": {
        "details": "Returns true if the contract is paused, and false otherwise."
      },
      "renounceOwnership()": {
        "details": "Leaves the contract without owner. It will not be possible to call `onlyOwner` functions anymore. Can only be called by the current owner. NOTE: Renouncing ownership will leave the contract without an owner, thereby removing any functionality that is only available to the owner."
      },
      "transferOwnership(address)": {
        "details": "Transfers ownership of the contract to a new account (`newOwner`). Can only be called by the current owner."
      }
    },
    "version": 1
  },
  "userdoc": {
    "kind": "user",
    "methods": {},
    "version": 1
  }
}