{
  "contractName": "AdEthNFT",
  "abi": [
    {
      "inputs": [
        {
          "internalType": "address",
          "name": "_newOwner",
          "type": "address"
        },
        {
          "internalType": "address",
          "name": "_newAdCaller",
          "type": "address"
        },
        {
          "internalType": "string",
          "name": "_newUri",
          "type": "string"
        },
        {
          "internalType": "uint8",
          "name": "_newCpc",
          "type": "uint8"
        }
      ],
      "stateMutability": "nonpayable",
      "type": "constructor"
    },
    {
      "anonymous": false,
      "inputs": [
        {
          "indexed": false,
          "internalType": "address",
          "name": "newAddress",
          "type": "address"
        }
      ],
      "name": "Whitelisted",
      "type": "event"
    },
    {
      "inputs": [],
      "name": "adCaller",
      "outputs": [
        {
          "internalType": "address",
          "name": "",
          "type": "address"
        }
      ],
      "stateMutability": "view",
      "type": "function",
      "constant": true
    },
    {
      "inputs": [],
      "name": "cpc",
      "outputs": [
        {
          "internalType": "uint8",
          "name": "",
          "type": "uint8"
        }
      ],
      "stateMutability": "view",
      "type": "function",
      "constant": true
    },
    {
      "inputs": [],
      "name": "factory",
      "outputs": [
        {
          "internalType": "address",
          "name": "",
          "type": "address"
        }
      ],
      "stateMutability": "view",
      "type": "function",
      "constant": true
    },
    {
      "inputs": [],
      "name": "owner",
      "outputs": [
        {
          "internalType": "address",
          "name": "",
          "type": "address"
        }
      ],
      "stateMutability": "view",
      "type": "function",
      "constant": true
    },
    {
      "inputs": [],
      "name": "uri",
      "outputs": [
        {
          "internalType": "string",
          "name": "",
          "type": "string"
        }
      ],
      "stateMutability": "view",
      "type": "function",
      "constant": true
    },
    {
      "inputs": [
        {
          "internalType": "address",
          "name": "",
          "type": "address"
        }
      ],
      "name": "whitelist",
      "outputs": [
        {
          "internalType": "bool",
          "name": "",
          "type": "bool"
        }
      ],
      "stateMutability": "view",
      "type": "function",
      "constant": true
    },
    {
      "inputs": [
        {
          "internalType": "address",
          "name": "_newAddress",
          "type": "address"
        }
      ],
      "name": "whitelistAddress",
      "outputs": [],
      "stateMutability": "nonpayable",
      "type": "function"
    },
    {
      "inputs": [
        {
          "internalType": "address",
          "name": "_newAddress",
          "type": "address"
        }
      ],
      "name": "blacklistAddress",
      "outputs": [],
      "stateMutability": "nonpayable",
      "type": "function"
    }
  ],
  "bytecode": "0x60806040523480156200001157600080fd5b5060405162000f4b38038062000f4b833981810160405281019062000037919062000287565b33600160006101000a81548173ffffffffffffffffffffffffffffffffffffffff021916908373ffffffffffffffffffffffffffffffffffffffff160217905550836000806101000a81548173ffffffffffffffffffffffffffffffffffffffff021916908373ffffffffffffffffffffffffffffffffffffffff16021790555082600260006101000a81548173ffffffffffffffffffffffffffffffffffffffff021916908373ffffffffffffffffffffffffffffffffffffffff16021790555081600390805190602001906200011192919062000137565b5080600460006101000a81548160ff021916908360ff16021790555050505050620004f1565b8280546200014590620003e2565b90600052602060002090601f016020900481019282620001695760008555620001b5565b82601f106200018457805160ff1916838001178555620001b5565b82800160010185558215620001b5579182015b82811115620001b457825182559160200191906001019062000197565b5b509050620001c49190620001c8565b5090565b5b80821115620001e3576000816000905550600101620001c9565b5090565b6000620001fe620001f88462000335565b6200030c565b9050828152602081018484840111156200021757600080fd5b62000224848285620003ac565b509392505050565b6000815190506200023d81620004bd565b92915050565b600082601f8301126200025557600080fd5b815162000267848260208601620001e7565b91505092915050565b6000815190506200028181620004d7565b92915050565b600080600080608085870312156200029e57600080fd5b6000620002ae878288016200022c565b9450506020620002c1878288016200022c565b935050604085015167ffffffffffffffff811115620002df57600080fd5b620002ed8782880162000243565b9250506060620003008782880162000270565b91505092959194509250565b6000620003186200032b565b905062000326828262000418565b919050565b6000604051905090565b600067ffffffffffffffff8211156200035357620003526200047d565b5b6200035e82620004ac565b9050602081019050919050565b600062000378826200037f565b9050919050565b600073ffffffffffffffffffffffffffffffffffffffff82169050919050565b600060ff82169050919050565b60005b83811015620003cc578082015181840152602081019050620003af565b83811115620003dc576000848401525b50505050565b60006002820490506001821680620003fb57607f821691505b602082108114156200041257620004116200044e565b5b50919050565b6200042382620004ac565b810181811067ffffffffffffffff821117156200044557620004446200047d565b5b80604052505050565b7f4e487b7100000000000000000000000000000000000000000000000000000000600052602260045260246000fd5b7f4e487b7100000000000000000000000000000000000000000000000000000000600052604160045260246000fd5b6000601f19601f8301169050919050565b620004c8816200036b565b8114620004d457600080fd5b50565b620004e2816200039f565b8114620004ee57600080fd5b50565b610a4a80620005016000396000f3fe608060405234801561001057600080fd5b50600436106100885760003560e01c8063b3af59d41161005b578063b3af59d414610115578063c45a015514610133578063eac989f814610151578063f3290d751461016f57610088565b8063415665851461008d57806382971a84146100a95780638da5cb5b146100c75780639b19251a146100e5575b600080fd5b6100a760048036038101906100a291906106ab565b61018b565b005b6100b1610378565b6040516100be919061085b565b60405180910390f35b6100cf61038b565b6040516100dc91906107a3565b60405180910390f35b6100ff60048036038101906100fa91906106ab565b6103af565b60405161010c91906107be565b60405180910390f35b61011d6103cf565b60405161012a91906107a3565b60405180910390f35b61013b6103f5565b60405161014891906107a3565b60405180910390f35b61015961041b565b60405161016691906107d9565b60405180910390f35b610189600480360381019061018491906106ab565b6104a9565b005b60008054906101000a900473ffffffffffffffffffffffffffffffffffffffff1673ffffffffffffffffffffffffffffffffffffffff163373ffffffffffffffffffffffffffffffffffffffff16146101e357600080fd5b600073ffffffffffffffffffffffffffffffffffffffff168173ffffffffffffffffffffffffffffffffffffffff161415610253576040517f08c379a000000000000000000000000000000000000000000000000000000000815260040161024a906107fb565b60405180910390fd5b60001515600560008373ffffffffffffffffffffffffffffffffffffffff1673ffffffffffffffffffffffffffffffffffffffff16815260200190815260200160002060009054906101000a900460ff161515146102e6576040517f08c379a00000000000000000000000000000000000000000000000000000000081526004016102dd9061081b565b60405180910390fd5b6001600560008373ffffffffffffffffffffffffffffffffffffffff1673ffffffffffffffffffffffffffffffffffffffff16815260200190815260200160002060006101000a81548160ff0219169083151502179055507faab7954e9d246b167ef88aeddad35209ca2489d95a8aeb59e288d9b19fae5a548160405161036d91906107a3565b60405180910390a150565b600460009054906101000a900460ff1681565b60008054906101000a900473ffffffffffffffffffffffffffffffffffffffff1681565b60056020528060005260406000206000915054906101000a900460ff1681565b600260009054906101000a900473ffffffffffffffffffffffffffffffffffffffff1681565b600160009054906101000a900473ffffffffffffffffffffffffffffffffffffffff1681565b6003805461042890610910565b80601f016020809104026020016040519081016040528092919081815260200182805461045490610910565b80156104a15780601f10610476576101008083540402835291602001916104a1565b820191906000526020600020905b81548152906001019060200180831161048457829003601f168201915b505050505081565b60008054906101000a900473ffffffffffffffffffffffffffffffffffffffff1673ffffffffffffffffffffffffffffffffffffffff163373ffffffffffffffffffffffffffffffffffffffff161461050157600080fd5b600073ffffffffffffffffffffffffffffffffffffffff168173ffffffffffffffffffffffffffffffffffffffff161415610571576040517f08c379a0000000000000000000000000000000000000000000000000000000008152600401610568906107fb565b60405180910390fd5b60011515600560008373ffffffffffffffffffffffffffffffffffffffff1673ffffffffffffffffffffffffffffffffffffffff16815260200190815260200160002060009054906101000a900460ff16151514610604576040517f08c379a00000000000000000000000000000000000000000000000000000000081526004016105fb9061083b565b60405180910390fd5b6000600560008373ffffffffffffffffffffffffffffffffffffffff1673ffffffffffffffffffffffffffffffffffffffff16815260200190815260200160002060006101000a81548160ff0219169083151502179055507faab7954e9d246b167ef88aeddad35209ca2489d95a8aeb59e288d9b19fae5a548160405161068b91906107a3565b60405180910390a150565b6000813590506106a5816109fd565b92915050565b6000602082840312156106bd57600080fd5b60006106cb84828501610696565b91505092915050565b6106dd81610892565b82525050565b6106ec816108a4565b82525050565b60006106fd82610876565b6107078185610881565b93506107178185602086016108dd565b61072081610971565b840191505092915050565b6000610738600983610881565b915061074382610982565b602082019050919050565b600061075b601b83610881565b9150610766826109ab565b602082019050919050565b600061077e601b83610881565b9150610789826109d4565b602082019050919050565b61079d816108d0565b82525050565b60006020820190506107b860008301846106d4565b92915050565b60006020820190506107d360008301846106e3565b92915050565b600060208201905081810360008301526107f381846106f2565b905092915050565b600060208201905081810360008301526108148161072b565b9050919050565b600060208201905081810360008301526108348161074e565b9050919050565b6000602082019050818103600083015261085481610771565b9050919050565b60006020820190506108706000830184610794565b92915050565b600081519050919050565b600082825260208201905092915050565b600061089d826108b0565b9050919050565b60008115159050919050565b600073ffffffffffffffffffffffffffffffffffffffff82169050919050565b600060ff82169050919050565b60005b838110156108fb5780820151818401526020810190506108e0565b8381111561090a576000848401525b50505050565b6000600282049050600182168061092857607f821691505b6020821081141561093c5761093b610942565b5b50919050565b7f4e487b7100000000000000000000000000000000000000000000000000000000600052602260045260246000fd5b6000601f19601f8301169050919050565b7f4164647265737320300000000000000000000000000000000000000000000000600082015250565b7f4164647265737320616c72656164792077686974656c69737465640000000000600082015250565b7f4164647265737320616c726561647920626c61636b6c69737465640000000000600082015250565b610a0681610892565b8114610a1157600080fd5b5056fea2646970667358221220498432803a44d0932501ce71410777955c426568044b5bf7e9c5e812b47ce9db64736f6c63430008040033",
  "immutableReferences": {},
  "source": "// SPDX-License-Identifier: MIT\npragma solidity ^0.8.4;\n\ncontract AdEthNFT {\n  address public owner;\n  address public factory;\n  address public adCaller;\n  string public uri;\n  uint8 public cpc;\n  \n  mapping(address => bool) public whitelist;\n  \n  event Whitelisted(address newAddress);\n\n  constructor(address _newOwner, address _newAdCaller, string memory _newUri, uint8 _newCpc) {\n    factory = msg.sender;\n    owner = _newOwner;\n    adCaller = _newAdCaller;\n    uri = _newUri;\n    cpc = _newCpc;\n  }\n\n  modifier onlyOwner {\n    require(msg.sender == owner);\n    _;\n  }\n  \n  //functions\n  //function beenClicked()\n  function whitelistAddress(address _newAddress) public onlyOwner {\n    require(_newAddress != address(0), \"Address 0\");\n    require(whitelist[_newAddress] == false, \"Address already whitelisted\");\n    \n    whitelist[_newAddress] = true;\n    \n    emit Whitelisted(_newAddress);\n  }\n\n  //function blacklistAddress()\n  function blacklistAddress(address _newAddress) public onlyOwner {\n    require(_newAddress != address(0), \"Address 0\");\n    require(whitelist[_newAddress] == true, \"Address already blacklisted\");\n    \n    whitelist[_newAddress] = false;\n    \n    emit Whitelisted(_newAddress);\n  }\n\n  //function callerBalance()\n}",
  "sourcePath": "C:/Users/rapha/Documents/IT/AdETH/contracts/AdEthNFT.sol",
  "compiler": {
    "name": "solc",
    "version": "0.8.4+commit.c7e474f2.Emscripten.clang"
  },
  "schemaVersion": "3.4.0",
  "updatedAt": "2021-05-29T00:49:28.827Z",
  "networkType": "ethereum",
  "devdoc": {
    "kind": "dev",
    "methods": {},
    "version": 1
  },
  "userdoc": {
    "kind": "user",
    "methods": {},
    "version": 1
  }
}