{
  "contractName": "Dai",
  "abi": [
    {
      "inputs": [
        {
          "internalType": "uint256",
          "name": "chainId_",
          "type": "uint256"
        }
      ],
      "stateMutability": "nonpayable",
      "type": "constructor"
    },
    {
      "anonymous": false,
      "inputs": [
        {
          "indexed": true,
          "internalType": "address",
          "name": "src",
          "type": "address"
        },
        {
          "indexed": true,
          "internalType": "address",
          "name": "guy",
          "type": "address"
        },
        {
          "indexed": false,
          "internalType": "uint256",
          "name": "wad",
          "type": "uint256"
        }
      ],
      "name": "Approval",
      "type": "event"
    },
    {
      "anonymous": false,
      "inputs": [
        {
          "indexed": true,
          "internalType": "address",
          "name": "src",
          "type": "address"
        },
        {
          "indexed": true,
          "internalType": "address",
          "name": "dst",
          "type": "address"
        },
        {
          "indexed": false,
          "internalType": "uint256",
          "name": "wad",
          "type": "uint256"
        }
      ],
      "name": "Transfer",
      "type": "event"
    },
    {
      "inputs": [],
      "name": "DOMAIN_SEPARATOR",
      "outputs": [
        {
          "internalType": "bytes32",
          "name": "",
          "type": "bytes32"
        }
      ],
      "stateMutability": "view",
      "type": "function",
      "constant": true
    },
    {
      "inputs": [],
      "name": "PERMIT_TYPEHASH",
      "outputs": [
        {
          "internalType": "bytes32",
          "name": "",
          "type": "bytes32"
        }
      ],
      "stateMutability": "view",
      "type": "function",
      "constant": true
    },
    {
      "inputs": [
        {
          "internalType": "address",
          "name": "",
          "type": "address"
        },
        {
          "internalType": "address",
          "name": "",
          "type": "address"
        }
      ],
      "name": "allowance",
      "outputs": [
        {
          "internalType": "uint256",
          "name": "",
          "type": "uint256"
        }
      ],
      "stateMutability": "view",
      "type": "function",
      "constant": true
    },
    {
      "inputs": [
        {
          "internalType": "address",
          "name": "",
          "type": "address"
        }
      ],
      "name": "balanceOf",
      "outputs": [
        {
          "internalType": "uint256",
          "name": "",
          "type": "uint256"
        }
      ],
      "stateMutability": "view",
      "type": "function",
      "constant": true
    },
    {
      "inputs": [],
      "name": "decimals",
      "outputs": [
        {
          "internalType": "uint8",
          "name": "",
          "type": "uint8"
        }
      ],
      "stateMutability": "view",
      "type": "function",
      "constant": true
    },
    {
      "inputs": [],
      "name": "name",
      "outputs": [
        {
          "internalType": "string",
          "name": "",
          "type": "string"
        }
      ],
      "stateMutability": "view",
      "type": "function",
      "constant": true
    },
    {
      "inputs": [
        {
          "internalType": "address",
          "name": "",
          "type": "address"
        }
      ],
      "name": "nonces",
      "outputs": [
        {
          "internalType": "uint256",
          "name": "",
          "type": "uint256"
        }
      ],
      "stateMutability": "view",
      "type": "function",
      "constant": true
    },
    {
      "inputs": [],
      "name": "symbol",
      "outputs": [
        {
          "internalType": "string",
          "name": "",
          "type": "string"
        }
      ],
      "stateMutability": "view",
      "type": "function",
      "constant": true
    },
    {
      "inputs": [],
      "name": "totalSupply",
      "outputs": [
        {
          "internalType": "uint256",
          "name": "",
          "type": "uint256"
        }
      ],
      "stateMutability": "view",
      "type": "function",
      "constant": true
    },
    {
      "inputs": [],
      "name": "version",
      "outputs": [
        {
          "internalType": "string",
          "name": "",
          "type": "string"
        }
      ],
      "stateMutability": "view",
      "type": "function",
      "constant": true
    },
    {
      "inputs": [
        {
          "internalType": "address",
          "name": "",
          "type": "address"
        }
      ],
      "name": "wards",
      "outputs": [
        {
          "internalType": "uint256",
          "name": "",
          "type": "uint256"
        }
      ],
      "stateMutability": "view",
      "type": "function",
      "constant": true
    },
    {
      "inputs": [
        {
          "internalType": "address",
          "name": "guy",
          "type": "address"
        }
      ],
      "name": "rely",
      "outputs": [],
      "stateMutability": "nonpayable",
      "type": "function"
    },
    {
      "inputs": [
        {
          "internalType": "address",
          "name": "guy",
          "type": "address"
        }
      ],
      "name": "deny",
      "outputs": [],
      "stateMutability": "nonpayable",
      "type": "function"
    },
    {
      "inputs": [
        {
          "internalType": "address",
          "name": "dst",
          "type": "address"
        },
        {
          "internalType": "uint256",
          "name": "wad",
          "type": "uint256"
        }
      ],
      "name": "transfer",
      "outputs": [
        {
          "internalType": "bool",
          "name": "",
          "type": "bool"
        }
      ],
      "stateMutability": "nonpayable",
      "type": "function"
    },
    {
      "inputs": [
        {
          "internalType": "address",
          "name": "src",
          "type": "address"
        },
        {
          "internalType": "address",
          "name": "dst",
          "type": "address"
        },
        {
          "internalType": "uint256",
          "name": "wad",
          "type": "uint256"
        }
      ],
      "name": "transferFrom",
      "outputs": [
        {
          "internalType": "bool",
          "name": "",
          "type": "bool"
        }
      ],
      "stateMutability": "nonpayable",
      "type": "function"
    },
    {
      "inputs": [
        {
          "internalType": "address",
          "name": "usr",
          "type": "address"
        },
        {
          "internalType": "uint256",
          "name": "wad",
          "type": "uint256"
        }
      ],
      "name": "mint",
      "outputs": [],
      "stateMutability": "nonpayable",
      "type": "function"
    },
    {
      "inputs": [
        {
          "internalType": "address",
          "name": "usr",
          "type": "address"
        },
        {
          "internalType": "uint256",
          "name": "wad",
          "type": "uint256"
        }
      ],
      "name": "burn",
      "outputs": [],
      "stateMutability": "nonpayable",
      "type": "function"
    },
    {
      "inputs": [
        {
          "internalType": "address",
          "name": "usr",
          "type": "address"
        },
        {
          "internalType": "uint256",
          "name": "wad",
          "type": "uint256"
        }
      ],
      "name": "approve",
      "outputs": [
        {
          "internalType": "bool",
          "name": "",
          "type": "bool"
        }
      ],
      "stateMutability": "nonpayable",
      "type": "function"
    },
    {
      "inputs": [
        {
          "internalType": "address",
          "name": "usr",
          "type": "address"
        },
        {
          "internalType": "uint256",
          "name": "wad",
          "type": "uint256"
        }
      ],
      "name": "push",
      "outputs": [],
      "stateMutability": "nonpayable",
      "type": "function"
    },
    {
      "inputs": [
        {
          "internalType": "address",
          "name": "usr",
          "type": "address"
        },
        {
          "internalType": "uint256",
          "name": "wad",
          "type": "uint256"
        }
      ],
      "name": "pull",
      "outputs": [],
      "stateMutability": "nonpayable",
      "type": "function"
    },
    {
      "inputs": [
        {
          "internalType": "address",
          "name": "src",
          "type": "address"
        },
        {
          "internalType": "address",
          "name": "dst",
          "type": "address"
        },
        {
          "internalType": "uint256",
          "name": "wad",
          "type": "uint256"
        }
      ],
      "name": "move",
      "outputs": [],
      "stateMutability": "nonpayable",
      "type": "function"
    },
    {
      "inputs": [
        {
          "internalType": "address",
          "name": "holder",
          "type": "address"
        },
        {
          "internalType": "address",
          "name": "spender",
          "type": "address"
        },
        {
          "internalType": "uint256",
          "name": "nonce",
          "type": "uint256"
        },
        {
          "internalType": "uint256",
          "name": "expiry",
          "type": "uint256"
        },
        {
          "internalType": "bool",
          "name": "allowed",
          "type": "bool"
        },
        {
          "internalType": "uint8",
          "name": "v",
          "type": "uint8"
        },
        {
          "internalType": "bytes32",
          "name": "r",
          "type": "bytes32"
        },
        {
          "internalType": "bytes32",
          "name": "s",
          "type": "bytes32"
        }
      ],
      "name": "permit",
      "outputs": [],
      "stateMutability": "nonpayable",
      "type": "function"
    }
  ],
  "bytecode": "0x60806040523480156200001157600080fd5b506040516200230d3803806200230d833981810160405281019062000037919062000168565b60016000803373ffffffffffffffffffffffffffffffffffffffff1673ffffffffffffffffffffffffffffffffffffffff168152602001908152602001600020819055507f8b73c3c69bb8fe3d512ecc4cf759cc79239f7b179b0ffacaa9a75d522b39400f6040518060400160405280600e81526020017f44616920537461626c65636f696e000000000000000000000000000000000000815250805190602001206040518060400160405280600181526020017f31000000000000000000000000000000000000000000000000000000000000008152508051906020012083306040516020016200012e959493929190620001c7565b604051602081830303815290604052805190602001206005819055505062000286565b60008151905062000162816200026c565b92915050565b6000602082840312156200017b57600080fd5b60006200018b8482850162000151565b91505092915050565b6200019f8162000224565b82525050565b620001b08162000238565b82525050565b620001c18162000262565b82525050565b600060a082019050620001de6000830188620001a5565b620001ed6020830187620001a5565b620001fc6040830186620001a5565b6200020b6060830185620001b6565b6200021a608083018462000194565b9695505050505050565b6000620002318262000242565b9050919050565b6000819050919050565b600073ffffffffffffffffffffffffffffffffffffffff82169050919050565b6000819050919050565b620002778162000262565b81146200028357600080fd5b50565b61207780620002966000396000f3fe608060405234801561001057600080fd5b50600436106101425760003560e01c80637ecebe00116100b8578063a9059cbb1161007c578063a9059cbb14610365578063b753a98c14610395578063bb35783b146103b1578063bf353dbb146103cd578063dd62ed3e146103fd578063f2d5d56b1461042d57610142565b80637ecebe00146102c35780638fcbaf0c146102f357806395d89b411461030f5780639c52a7f11461032d5780639dc29fac1461034957610142565b8063313ce5671161010a578063313ce567146102015780633644e5151461021f57806340c10f191461023d57806354fd4d501461025957806365fae35e1461027757806370a082311461029357610142565b806306fdde0314610147578063095ea7b31461016557806318160ddd1461019557806323b872dd146101b357806330adf81f146101e3575b600080fd5b61014f610449565b60405161015c9190611b78565b60405180910390f35b61017f600480360381019061017a9190611876565b610482565b60405161018c9190611a9c565b60405180910390f35b61019d610574565b6040516101aa9190611c7a565b60405180910390f35b6101cd60048036038101906101c89190611775565b61057a565b6040516101da9190611a9c565b60405180910390f35b6101eb610a1b565b6040516101f89190611ab7565b60405180910390f35b610209610a42565b6040516102169190611c95565b60405180910390f35b610227610a47565b6040516102349190611ab7565b60405180910390f35b61025760048036038101906102529190611876565b610a4d565b005b610261610bd6565b60405161026e9190611b78565b60405180910390f35b610291600480360381019061028c9190611710565b610c0f565b005b6102ad60048036038101906102a89190611710565b610cd7565b6040516102ba9190611c7a565b60405180910390f35b6102dd60048036038101906102d89190611710565b610cef565b6040516102ea9190611c7a565b60405180910390f35b61030d600480360381019061030891906117c4565b610d07565b005b6103176110be565b6040516103249190611b78565b60405180910390f35b61034760048036038101906103429190611710565b6110f7565b005b610363600480360381019061035e9190611876565b6111bf565b005b61037f600480360381019061037a9190611876565b6115de565b60405161038c9190611a9c565b60405180910390f35b6103af60048036038101906103aa9190611876565b6115f3565b005b6103cb60048036038101906103c69190611775565b611603565b005b6103e760048036038101906103e29190611710565b611614565b6040516103f49190611c7a565b60405180910390f35b61041760048036038101906104129190611739565b61162c565b6040516104249190611c7a565b60405180910390f35b61044760048036038101906104429190611876565b611651565b005b6040518060400160405280600e81526020017f44616920537461626c65636f696e00000000000000000000000000000000000081525081565b600081600360003373ffffffffffffffffffffffffffffffffffffffff1673ffffffffffffffffffffffffffffffffffffffff16815260200190815260200160002060008573ffffffffffffffffffffffffffffffffffffffff1673ffffffffffffffffffffffffffffffffffffffff168152602001908152602001600020819055508273ffffffffffffffffffffffffffffffffffffffff163373ffffffffffffffffffffffffffffffffffffffff167f8c5be1e5ebec7d5bd14f71427d1e84f3dd0314c0f7b2291e5b200ac8c7c3b925846040516105629190611c7a565b60405180910390a36001905092915050565b60015481565b600081600260008673ffffffffffffffffffffffffffffffffffffffff1673ffffffffffffffffffffffffffffffffffffffff1681526020019081526020016000205410156105fe576040517f08c379a00000000000000000000000000000000000000000000000000000000081526004016105f590611c1a565b60405180910390fd5b3373ffffffffffffffffffffffffffffffffffffffff168473ffffffffffffffffffffffffffffffffffffffff16141580156106c857506fffffffffffffffffffffffffffffffff8016600360008673ffffffffffffffffffffffffffffffffffffffff1673ffffffffffffffffffffffffffffffffffffffff16815260200190815260200160002060003373ffffffffffffffffffffffffffffffffffffffff1673ffffffffffffffffffffffffffffffffffffffff1681526020019081526020016000205414155b156108935781600360008673ffffffffffffffffffffffffffffffffffffffff1673ffffffffffffffffffffffffffffffffffffffff16815260200190815260200160002060003373ffffffffffffffffffffffffffffffffffffffff1673ffffffffffffffffffffffffffffffffffffffff16815260200190815260200160002054101561078c576040517f08c379a000000000000000000000000000000000000000000000000000000000815260040161078390611c3a565b60405180910390fd5b610812600360008673ffffffffffffffffffffffffffffffffffffffff1673ffffffffffffffffffffffffffffffffffffffff16815260200190815260200160002060003373ffffffffffffffffffffffffffffffffffffffff1673ffffffffffffffffffffffffffffffffffffffff1681526020019081526020016000205483611661565b600360008673ffffffffffffffffffffffffffffffffffffffff1673ffffffffffffffffffffffffffffffffffffffff16815260200190815260200160002060003373ffffffffffffffffffffffffffffffffffffffff1673ffffffffffffffffffffffffffffffffffffffff168152602001908152602001600020819055505b6108dc600260008673ffffffffffffffffffffffffffffffffffffffff1673ffffffffffffffffffffffffffffffffffffffff1681526020019081526020016000205483611661565b600260008673ffffffffffffffffffffffffffffffffffffffff1673ffffffffffffffffffffffffffffffffffffffff16815260200190815260200160002081905550610968600260008573ffffffffffffffffffffffffffffffffffffffff1673ffffffffffffffffffffffffffffffffffffffff1681526020019081526020016000205483611684565b600260008573ffffffffffffffffffffffffffffffffffffffff1673ffffffffffffffffffffffffffffffffffffffff168152602001908152602001600020819055508273ffffffffffffffffffffffffffffffffffffffff168473ffffffffffffffffffffffffffffffffffffffff167fddf252ad1be2c89b69c2b068fc378daa952ba7f163c4a11628f55a4df523b3ef84604051610a089190611c7a565b60405180910390a3600190509392505050565b7fea2aa0a1be11a07ed86d755c93467f4f82362b452371d1ba94d1715123511acb60001b81565b601281565b60055481565b60016000803373ffffffffffffffffffffffffffffffffffffffff1673ffffffffffffffffffffffffffffffffffffffff1681526020019081526020016000205414610ace576040517f08c379a0000000000000000000000000000000000000000000000000000000008152600401610ac590611bba565b60405180910390fd5b610b17600260008473ffffffffffffffffffffffffffffffffffffffff1673ffffffffffffffffffffffffffffffffffffffff1681526020019081526020016000205482611684565b600260008473ffffffffffffffffffffffffffffffffffffffff1673ffffffffffffffffffffffffffffffffffffffff16815260200190815260200160002081905550610b6660015482611684565b6001819055508173ffffffffffffffffffffffffffffffffffffffff16600073ffffffffffffffffffffffffffffffffffffffff167fddf252ad1be2c89b69c2b068fc378daa952ba7f163c4a11628f55a4df523b3ef83604051610bca9190611c7a565b60405180910390a35050565b6040518060400160405280600181526020017f310000000000000000000000000000000000000000000000000000000000000081525081565b60016000803373ffffffffffffffffffffffffffffffffffffffff1673ffffffffffffffffffffffffffffffffffffffff1681526020019081526020016000205414610c90576040517f08c379a0000000000000000000000000000000000000000000000000000000008152600401610c8790611bba565b60405180910390fd5b60016000808373ffffffffffffffffffffffffffffffffffffffff1673ffffffffffffffffffffffffffffffffffffffff1681526020019081526020016000208190555050565b60026020528060005260406000206000915090505481565b60046020528060005260406000206000915090505481565b60006005547fea2aa0a1be11a07ed86d755c93467f4f82362b452371d1ba94d1715123511acb60001b8a8a8a8a8a604051602001610d4a96959493929190611ad2565b60405160208183030381529060405280519060200120604051602001610d71929190611a65565b604051602081830303815290604052805190602001209050600073ffffffffffffffffffffffffffffffffffffffff168973ffffffffffffffffffffffffffffffffffffffff161415610df9576040517f08c379a0000000000000000000000000000000000000000000000000000000008152600401610df090611bfa565b60405180910390fd5b60018185858560405160008152602001604052604051610e1c9493929190611b33565b6020604051602081039080840390855afa158015610e3e573d6000803e3d6000fd5b5050506020604051035173ffffffffffffffffffffffffffffffffffffffff168973ffffffffffffffffffffffffffffffffffffffff1614610eb5576040517f08c379a0000000000000000000000000000000000000000000000000000000008152600401610eac90611c5a565b60405180910390fd5b6000861480610ec45750854211155b610f03576040517f08c379a0000000000000000000000000000000000000000000000000000000008152600401610efa90611b9a565b60405180910390fd5b600460008a73ffffffffffffffffffffffffffffffffffffffff1673ffffffffffffffffffffffffffffffffffffffff1681526020019081526020016000206000815480929190610f5390611df3565b919050558714610f98576040517f08c379a0000000000000000000000000000000000000000000000000000000008152600401610f8f90611bda565b60405180910390fd5b600085610fa6576000610fb8565b6fffffffffffffffffffffffffffffffff5b6fffffffffffffffffffffffffffffffff16905080600360008c73ffffffffffffffffffffffffffffffffffffffff1673ffffffffffffffffffffffffffffffffffffffff16815260200190815260200160002060008b73ffffffffffffffffffffffffffffffffffffffff1673ffffffffffffffffffffffffffffffffffffffff168152602001908152602001600020819055508873ffffffffffffffffffffffffffffffffffffffff168a73ffffffffffffffffffffffffffffffffffffffff167f8c5be1e5ebec7d5bd14f71427d1e84f3dd0314c0f7b2291e5b200ac8c7c3b925836040516110aa9190611c7a565b60405180910390a350505050505050505050565b6040518060400160405280600381526020017f444149000000000000000000000000000000000000000000000000000000000081525081565b60016000803373ffffffffffffffffffffffffffffffffffffffff1673ffffffffffffffffffffffffffffffffffffffff1681526020019081526020016000205414611178576040517f08c379a000000000000000000000000000000000000000000000000000000000815260040161116f90611bba565b60405180910390fd5b60008060008373ffffffffffffffffffffffffffffffffffffffff1673ffffffffffffffffffffffffffffffffffffffff1681526020019081526020016000208190555050565b80600260008473ffffffffffffffffffffffffffffffffffffffff1673ffffffffffffffffffffffffffffffffffffffff168152602001908152602001600020541015611241576040517f08c379a000000000000000000000000000000000000000000000000000000000815260040161123890611c1a565b60405180910390fd5b3373ffffffffffffffffffffffffffffffffffffffff168273ffffffffffffffffffffffffffffffffffffffff161415801561130b57506fffffffffffffffffffffffffffffffff8016600360008473ffffffffffffffffffffffffffffffffffffffff1673ffffffffffffffffffffffffffffffffffffffff16815260200190815260200160002060003373ffffffffffffffffffffffffffffffffffffffff1673ffffffffffffffffffffffffffffffffffffffff1681526020019081526020016000205414155b156114d65780600360008473ffffffffffffffffffffffffffffffffffffffff1673ffffffffffffffffffffffffffffffffffffffff16815260200190815260200160002060003373ffffffffffffffffffffffffffffffffffffffff1673ffffffffffffffffffffffffffffffffffffffff1681526020019081526020016000205410156113cf576040517f08c379a00000000000000000000000000000000000000000000000000000000081526004016113c690611c3a565b60405180910390fd5b611455600360008473ffffffffffffffffffffffffffffffffffffffff1673ffffffffffffffffffffffffffffffffffffffff16815260200190815260200160002060003373ffffffffffffffffffffffffffffffffffffffff1673ffffffffffffffffffffffffffffffffffffffff1681526020019081526020016000205482611661565b600360008473ffffffffffffffffffffffffffffffffffffffff1673ffffffffffffffffffffffffffffffffffffffff16815260200190815260200160002060003373ffffffffffffffffffffffffffffffffffffffff1673ffffffffffffffffffffffffffffffffffffffff168152602001908152602001600020819055505b61151f600260008473ffffffffffffffffffffffffffffffffffffffff1673ffffffffffffffffffffffffffffffffffffffff1681526020019081526020016000205482611661565b600260008473ffffffffffffffffffffffffffffffffffffffff1673ffffffffffffffffffffffffffffffffffffffff1681526020019081526020016000208190555061156e60015482611661565b600181905550600073ffffffffffffffffffffffffffffffffffffffff168273ffffffffffffffffffffffffffffffffffffffff167fddf252ad1be2c89b69c2b068fc378daa952ba7f163c4a11628f55a4df523b3ef836040516115d29190611c7a565b60405180910390a35050565b60006115eb33848461057a565b905092915050565b6115fe33838361057a565b505050565b61160e83838361057a565b50505050565b60006020528060005260406000206000915090505481565b6003602052816000526040600020602052806000526040600020600091509150505481565b61165c82338361057a565b505050565b60008282846116709190611d2d565b915081111561167e57600080fd5b92915050565b60008282846116939190611cd7565b91508110156116a157600080fd5b92915050565b6000813590506116b681611fce565b92915050565b6000813590506116cb81611fe5565b92915050565b6000813590506116e081611ffc565b92915050565b6000813590506116f581612013565b92915050565b60008135905061170a8161202a565b92915050565b60006020828403121561172257600080fd5b6000611730848285016116a7565b91505092915050565b6000806040838503121561174c57600080fd5b600061175a858286016116a7565b925050602061176b858286016116a7565b9150509250929050565b60008060006060848603121561178a57600080fd5b6000611798868287016116a7565b93505060206117a9868287016116a7565b92505060406117ba868287016116e6565b9150509250925092565b600080600080600080600080610100898b0312156117e157600080fd5b60006117ef8b828c016116a7565b98505060206118008b828c016116a7565b97505060406118118b828c016116e6565b96505060606118228b828c016116e6565b95505060806118338b828c016116bc565b94505060a06118448b828c016116fb565b93505060c06118558b828c016116d1565b92505060e06118668b828c016116d1565b9150509295985092959890939650565b6000806040838503121561188957600080fd5b6000611897858286016116a7565b92505060206118a8858286016116e6565b9150509250929050565b6118bb81611d61565b82525050565b6118ca81611d73565b82525050565b6118d981611d7f565b82525050565b6118f06118eb82611d7f565b611e3c565b82525050565b600061190182611cb0565b61190b8185611cbb565b935061191b818560208601611dc0565b61192481611e75565b840191505092915050565b600061193c601283611cbb565b915061194782611e86565b602082019050919050565b600061195f600283611ccc565b915061196a82611eaf565b600282019050919050565b6000611982601283611cbb565b915061198d82611ed8565b602082019050919050565b60006119a5601183611cbb565b91506119b082611f01565b602082019050919050565b60006119c8601583611cbb565b91506119d382611f2a565b602082019050919050565b60006119eb601883611cbb565b91506119f682611f53565b602082019050919050565b6000611a0e601a83611cbb565b9150611a1982611f7c565b602082019050919050565b6000611a31601283611cbb565b9150611a3c82611fa5565b602082019050919050565b611a5081611da9565b82525050565b611a5f81611db3565b82525050565b6000611a7082611952565b9150611a7c82856118df565b602082019150611a8c82846118df565b6020820191508190509392505050565b6000602082019050611ab160008301846118c1565b92915050565b6000602082019050611acc60008301846118d0565b92915050565b600060c082019050611ae760008301896118d0565b611af460208301886118b2565b611b0160408301876118b2565b611b0e6060830186611a47565b611b1b6080830185611a47565b611b2860a08301846118c1565b979650505050505050565b6000608082019050611b4860008301876118d0565b611b556020830186611a56565b611b6260408301856118d0565b611b6f60608301846118d0565b95945050505050565b60006020820190508181036000830152611b9281846118f6565b905092915050565b60006020820190508181036000830152611bb38161192f565b9050919050565b60006020820190508181036000830152611bd381611975565b9050919050565b60006020820190508181036000830152611bf381611998565b9050919050565b60006020820190508181036000830152611c13816119bb565b9050919050565b60006020820190508181036000830152611c33816119de565b9050919050565b60006020820190508181036000830152611c5381611a01565b9050919050565b60006020820190508181036000830152611c7381611a24565b9050919050565b6000602082019050611c8f6000830184611a47565b92915050565b6000602082019050611caa6000830184611a56565b92915050565b600081519050919050565b600082825260208201905092915050565b600081905092915050565b6000611ce282611da9565b9150611ced83611da9565b9250827fffffffffffffffffffffffffffffffffffffffffffffffffffffffffffffffff03821115611d2257611d21611e46565b5b828201905092915050565b6000611d3882611da9565b9150611d4383611da9565b925082821015611d5657611d55611e46565b5b828203905092915050565b6000611d6c82611d89565b9050919050565b60008115159050919050565b6000819050919050565b600073ffffffffffffffffffffffffffffffffffffffff82169050919050565b6000819050919050565b600060ff82169050919050565b60005b83811015611dde578082015181840152602081019050611dc3565b83811115611ded576000848401525b50505050565b6000611dfe82611da9565b91507fffffffffffffffffffffffffffffffffffffffffffffffffffffffffffffffff821415611e3157611e30611e46565b5b600182019050919050565b6000819050919050565b7f4e487b7100000000000000000000000000000000000000000000000000000000600052601160045260246000fd5b6000601f19601f8301169050919050565b7f4461692f7065726d69742d657870697265640000000000000000000000000000600082015250565b7f1901000000000000000000000000000000000000000000000000000000000000600082015250565b7f4461692f6e6f742d617574686f72697a65640000000000000000000000000000600082015250565b7f4461692f696e76616c69642d6e6f6e6365000000000000000000000000000000600082015250565b7f4461692f696e76616c69642d616464726573732d300000000000000000000000600082015250565b7f4461692f696e73756666696369656e742d62616c616e63650000000000000000600082015250565b7f4461692f696e73756666696369656e742d616c6c6f77616e6365000000000000600082015250565b7f4461692f696e76616c69642d7065726d69740000000000000000000000000000600082015250565b611fd781611d61565b8114611fe257600080fd5b50565b611fee81611d73565b8114611ff957600080fd5b50565b61200581611d7f565b811461201057600080fd5b50565b61201c81611da9565b811461202757600080fd5b50565b61203381611db3565b811461203e57600080fd5b5056fea26469706673582212203b85796ea14c64e92539b58641575530162ba57c0abcceebe51204ecccb947ac64736f6c63430008040033",
  "immutableReferences": {},
  "source": "// SPDX-License-Identifier: AGPL-3.0-or-later\n\n// Copyright (C) 2017, 2018, 2019 dbrock, rain, mrchico\n\n// This program is free software: you can redistribute it and/or modify\n// it under the terms of the GNU Affero General Public License as published by\n// the Free Software Foundation, either version 3 of the License, or\n// (at your option) any later version.\n//\n// This program is distributed in the hope that it will be useful,\n// but WITHOUT ANY WARRANTY; without even the implied warranty of\n// MERCHANTABILITY or FITNESS FOR A PARTICULAR PURPOSE.  See the\n// GNU Affero General Public License for more details.\n//\n// You should have received a copy of the GNU Affero General Public License\n// along with this program.  If not, see <https://www.gnu.org/licenses/>.\n\npragma solidity >=0.5.12;\n\n// FIXME: This contract was altered compared to the production version.\n// It doesn't use LibNote anymore.\n// New deployments of this contract will need to include custom events (TO DO).\n\ncontract Dai {\n    // --- Auth ---\n    mapping (address => uint) public wards;\n    function rely(address guy) external auth { wards[guy] = 1; }\n    function deny(address guy) external auth { wards[guy] = 0; }\n    modifier auth {\n        require(wards[msg.sender] == 1, \"Dai/not-authorized\");\n        _;\n    }\n\n    // --- ERC20 Data ---\n    string  public constant name     = \"Dai Stablecoin\";\n    string  public constant symbol   = \"DAI\";\n    string  public constant version  = \"1\";\n    uint8   public constant decimals = 18;\n    uint256 public totalSupply;\n\n    mapping (address => uint)                      public balanceOf;\n    mapping (address => mapping (address => uint)) public allowance;\n    mapping (address => uint)                      public nonces;\n\n    event Approval(address indexed src, address indexed guy, uint wad);\n    event Transfer(address indexed src, address indexed dst, uint wad);\n\n    // --- Math ---\n    function add(uint x, uint y) internal pure returns (uint z) {\n        require((z = x + y) >= x);\n    }\n    function sub(uint x, uint y) internal pure returns (uint z) {\n        require((z = x - y) <= x);\n    }\n\n    // --- EIP712 niceties ---\n    bytes32 public DOMAIN_SEPARATOR;\n    // bytes32 public constant PERMIT_TYPEHASH = keccak256(\"Permit(address holder,address spender,uint256 nonce,uint256 expiry,bool allowed)\");\n    bytes32 public constant PERMIT_TYPEHASH = 0xea2aa0a1be11a07ed86d755c93467f4f82362b452371d1ba94d1715123511acb;\n\n    constructor(uint256 chainId_) {\n        wards[msg.sender] = 1;\n        DOMAIN_SEPARATOR = keccak256(abi.encode(\n            keccak256(\"EIP712Domain(string name,string version,uint256 chainId,address verifyingContract)\"),\n            keccak256(bytes(name)),\n            keccak256(bytes(version)),\n            chainId_,\n            address(this)\n        ));\n    }\n\n    // --- Token ---\n    function transfer(address dst, uint wad) external returns (bool) {\n        return transferFrom(msg.sender, dst, wad);\n    }\n    function transferFrom(address src, address dst, uint wad)\n        public returns (bool)\n    {\n        require(balanceOf[src] >= wad, \"Dai/insufficient-balance\");\n\n        if (src != msg.sender && allowance[src][msg.sender] != type(uint128).max) {\n            require(allowance[src][msg.sender] >= wad, \"Dai/insufficient-allowance\");\n            allowance[src][msg.sender] = sub(allowance[src][msg.sender], wad);\n        }\n        balanceOf[src] = sub(balanceOf[src], wad);\n        balanceOf[dst] = add(balanceOf[dst], wad);\n        emit Transfer(src, dst, wad);\n        return true;\n    }\n    function mint(address usr, uint wad) external auth {\n        balanceOf[usr] = add(balanceOf[usr], wad);\n        totalSupply    = add(totalSupply, wad);\n        emit Transfer(address(0), usr, wad);\n    }\n    function burn(address usr, uint wad) external {\n        require(balanceOf[usr] >= wad, \"Dai/insufficient-balance\");\n        if (usr != msg.sender && allowance[usr][msg.sender] != type(uint128).max) {\n            require(allowance[usr][msg.sender] >= wad, \"Dai/insufficient-allowance\");\n            allowance[usr][msg.sender] = sub(allowance[usr][msg.sender], wad);\n        }\n        balanceOf[usr] = sub(balanceOf[usr], wad);\n        totalSupply    = sub(totalSupply, wad);\n        emit Transfer(usr, address(0), wad);\n    }\n    function approve(address usr, uint wad) external returns (bool) {\n        allowance[msg.sender][usr] = wad;\n        emit Approval(msg.sender, usr, wad);\n        return true;\n    }\n\n    // --- Alias ---\n    function push(address usr, uint wad) external {\n        transferFrom(msg.sender, usr, wad);\n    }\n    function pull(address usr, uint wad) external {\n        transferFrom(usr, msg.sender, wad);\n    }\n    function move(address src, address dst, uint wad) external {\n        transferFrom(src, dst, wad);\n    }\n\n    // --- Approve by signature ---\n    function permit(address holder, address spender, uint256 nonce, uint256 expiry,\n                    bool allowed, uint8 v, bytes32 r, bytes32 s) external\n    {\n        bytes32 digest =\n            keccak256(abi.encodePacked(\n                \"\\x19\\x01\",\n                DOMAIN_SEPARATOR,\n                keccak256(abi.encode(PERMIT_TYPEHASH,\n                                     holder,\n                                     spender,\n                                     nonce,\n                                     expiry,\n                                     allowed))\n        ));\n\n        require(holder != address(0), \"Dai/invalid-address-0\");\n        require(holder == ecrecover(digest, v, r, s), \"Dai/invalid-permit\");\n        require(expiry == 0 || block.timestamp <= expiry, \"Dai/permit-expired\");\n        require(nonce == nonces[holder]++, \"Dai/invalid-nonce\");\n        uint wad = allowed ? type(uint128).max : 0;\n        allowance[holder][spender] = wad;\n        emit Approval(holder, spender, wad);\n    }\n}",
  "sourcePath": "C:/Users/rapha/Documents/IT/AdETH/contracts/Dai.sol",
  "compiler": {
    "name": "solc",
    "version": "0.8.4+commit.c7e474f2.Emscripten.clang"
  },
  "schemaVersion": "3.4.0",
  "updatedAt": "2021-05-29T10:52:09.858Z",
  "networkType": "ethereum",
  "devdoc": {
    "kind": "dev",
    "methods": {},
    "version": 1
  },
  "userdoc": {
    "kind": "user",
    "methods": {},
    "version": 1
  }
}